{
	"contracts/SimpleStorage.sol": {
		"SimpleStorage": {
			"abi": [
				{
					"inputs": [],
					"name": "add",
					"outputs": [
						{
							"internalType": "uint256",
							"name": "",
							"type": "uint256"
						}
					],
					"stateMutability": "pure",
					"type": "function"
				},
				{
					"inputs": [
						{
							"internalType": "string",
							"name": "_name",
							"type": "string"
						},
						{
							"internalType": "uint256",
							"name": "_favNum",
							"type": "uint256"
						},
						{
							"internalType": "bool",
							"name": "_smart",
							"type": "bool"
						}
					],
					"name": "addPerson",
					"outputs": [],
					"stateMutability": "nonpayable",
					"type": "function"
				},
				{
					"inputs": [
						{
							"internalType": "uint256",
							"name": "_favoriteNum",
							"type": "uint256"
						}
					],
					"name": "myStore",
					"outputs": [],
					"stateMutability": "nonpayable",
					"type": "function"
				},
				{
					"inputs": [
						{
							"internalType": "uint256",
							"name": "",
							"type": "uint256"
						}
					],
					"name": "numArr",
					"outputs": [
						{
							"internalType": "uint256",
							"name": "",
							"type": "uint256"
						}
					],
					"stateMutability": "view",
					"type": "function"
				},
				{
					"inputs": [
						{
							"internalType": "uint256",
							"name": "",
							"type": "uint256"
						}
					],
					"name": "peopleArr",
					"outputs": [
						{
							"internalType": "uint256",
							"name": "favorteNum",
							"type": "uint256"
						},
						{
							"internalType": "string",
							"name": "name",
							"type": "string"
						},
						{
							"internalType": "bool",
							"name": "smart",
							"type": "bool"
						}
					],
					"stateMutability": "view",
					"type": "function"
				},
				{
					"inputs": [],
					"name": "person1",
					"outputs": [
						{
							"internalType": "uint256",
							"name": "favorteNum",
							"type": "uint256"
						},
						{
							"internalType": "string",
							"name": "name",
							"type": "string"
						},
						{
							"internalType": "bool",
							"name": "smart",
							"type": "bool"
						}
					],
					"stateMutability": "view",
					"type": "function"
				},
				{
					"inputs": [],
					"name": "retrieve",
					"outputs": [
						{
							"internalType": "uint256",
							"name": "",
							"type": "uint256"
						}
					],
					"stateMutability": "view",
					"type": "function"
				}
			],
			"devdoc": {
				"kind": "dev",
				"methods": {},
				"version": 1
			},
			"evm": {
				"assembly": "    /* \"contracts/SimpleStorage.sol\":84:2119  contract SimpleStorage{... */\n  mstore(0x40, 0x80)\n    /* \"contracts/SimpleStorage.sol\":195:199  true */\n  0x01\n    /* \"contracts/SimpleStorage.sol\":176:199  bool hasfavorite = true */\n  0x00\n  dup1\n  0x0100\n  exp\n  dup2\n  sload\n  dup2\n  0xff\n  mul\n  not\n  and\n  swap1\n  dup4\n  iszero\n  iszero\n  mul\n  or\n  swap1\n  sstore\n  pop\n    /* \"contracts/SimpleStorage.sol\":262:265  123 */\n  0x7b\n    /* \"contracts/SimpleStorage.sol\":241:265  uint256 favorteNum = 123 */\n  0x01\n  sstore\n    /* \"contracts/SimpleStorage.sol\":274:295  string name = \"harry\" */\n  mload(0x40)\n  dup1\n  0x40\n  add\n  0x40\n  mstore\n  dup1\n  0x05\n  dup2\n  mstore\n  0x20\n  add\n  0x6861727279000000000000000000000000000000000000000000000000000000\n  dup2\n  mstore\n  pop\n  0x02\n  swap1\n  dup2\n  tag_1\n  swap2\n  swap1\n  tag_2\n  jump\t// in\ntag_1:\n  pop\n    /* \"contracts/SimpleStorage.sol\":325:329  -500 */\n  0xfffffffffffffffffffffffffffffffffffffffffffffffffffffffffffffe0c\n    /* \"contracts/SimpleStorage.sol\":304:329  int256 favoriteInt = -500 */\n  0x03\n  sstore\n    /* \"contracts/SimpleStorage.sol\":358:400  0xC60d2167B348708875a1f276484167EbC62e7b52 */\n  0xc60d2167b348708875a1f276484167ebc62e7b52\n    /* \"contracts/SimpleStorage.sol\":338:400  address myAddress = 0xC60d2167B348708875a1f276484167EbC62e7b52 */\n  0x04\n  exp(0x0100, 0x00)\n  dup2\n  sload\n  dup2\n  0xffffffffffffffffffffffffffffffffffffffff\n  mul\n  not\n  and\n  swap1\n  dup4\n  0xffffffffffffffffffffffffffffffffffffffff\n  and\n  mul\n  or\n  swap1\n  sstore\n  pop\n    /* \"contracts/SimpleStorage.sol\":468:499  bytes32 favoriteBytes = \"harry\" */\n  sstore(0x05, 0x6861727279000000000000000000000000000000000000000000000000000000)\n    /* \"contracts/SimpleStorage.sol\":1428:1483  People({favorteNum : 52, name : \"Adarsh\", smart: true}) */\n  mload(0x40)\n  dup1\n  0x60\n  add\n  0x40\n  mstore\n  dup1\n    /* \"contracts/SimpleStorage.sol\":1449:1451  52 */\n  0x34\n    /* \"contracts/SimpleStorage.sol\":1428:1483  People({favorteNum : 52, name : \"Adarsh\", smart: true}) */\n  dup2\n  mstore\n  0x20\n  add\n  mload(0x40)\n  dup1\n  0x40\n  add\n  0x40\n  mstore\n  dup1\n  0x06\n  dup2\n  mstore\n  0x20\n  add\n  0x4164617273680000000000000000000000000000000000000000000000000000\n  dup2\n  mstore\n  pop\n  dup2\n  mstore\n  0x20\n  add\n    /* \"contracts/SimpleStorage.sol\":1477:1481  true */\n  0x01\n    /* \"contracts/SimpleStorage.sol\":1428:1483  People({favorteNum : 52, name : \"Adarsh\", smart: true}) */\n  iszero\n  iszero\n  dup2\n  mstore\n  pop\n    /* \"contracts/SimpleStorage.sol\":1404:1483  People public person1 = People({favorteNum : 52, name : \"Adarsh\", smart: true}) */\n  0x07\n  0x00\n  dup3\n  add\n  mload\n  dup2\n  0x00\n  add\n  sstore\n  0x20\n  dup3\n  add\n  mload\n  dup2\n  0x01\n  add\n  swap1\n  dup2\n  tag_3\n  swap2\n  swap1\n  tag_2\n  jump\t// in\ntag_3:\n  pop\n  0x40\n  dup3\n  add\n  mload\n  dup2\n  0x02\n  add\n  exp(0x0100, 0x00)\n  dup2\n  sload\n  dup2\n  0xff\n  mul\n  not\n  and\n  swap1\n  dup4\n  iszero\n  iszero\n  mul\n  or\n  swap1\n  sstore\n  pop\n  pop\n  pop\n    /* \"contracts/SimpleStorage.sol\":84:2119  contract SimpleStorage{... */\n  callvalue\n  dup1\n  iszero\n  tag_4\n  jumpi\n  0x00\n  dup1\n  revert\ntag_4:\n  pop\n  jump(tag_5)\n    /* \"#utility.yul\":7:106   */\ntag_6:\n    /* \"#utility.yul\":59:65   */\n  0x00\n    /* \"#utility.yul\":93:98   */\n  dup2\n    /* \"#utility.yul\":87:99   */\n  mload\n    /* \"#utility.yul\":77:99   */\n  swap1\n  pop\n    /* \"#utility.yul\":7:106   */\n  swap2\n  swap1\n  pop\n  jump\t// out\n    /* \"#utility.yul\":112:292   */\ntag_7:\n    /* \"#utility.yul\":160:237   */\n  0x4e487b7100000000000000000000000000000000000000000000000000000000\n    /* \"#utility.yul\":157:158   */\n  0x00\n    /* \"#utility.yul\":150:238   */\n  mstore\n    /* \"#utility.yul\":257:261   */\n  0x41\n    /* \"#utility.yul\":254:255   */\n  0x04\n    /* \"#utility.yul\":247:262   */\n  mstore\n    /* \"#utility.yul\":281:285   */\n  0x24\n    /* \"#utility.yul\":278:279   */\n  0x00\n    /* \"#utility.yul\":271:286   */\n  revert\n    /* \"#utility.yul\":298:478   */\ntag_8:\n    /* \"#utility.yul\":346:423   */\n  0x4e487b7100000000000000000000000000000000000000000000000000000000\n    /* \"#utility.yul\":343:344   */\n  0x00\n    /* \"#utility.yul\":336:424   */\n  mstore\n    /* \"#utility.yul\":443:447   */\n  0x22\n    /* \"#utility.yul\":440:441   */\n  0x04\n    /* \"#utility.yul\":433:448   */\n  mstore\n    /* \"#utility.yul\":467:471   */\n  0x24\n    /* \"#utility.yul\":464:465   */\n  0x00\n    /* \"#utility.yul\":457:472   */\n  revert\n    /* \"#utility.yul\":484:804   */\ntag_9:\n    /* \"#utility.yul\":528:534   */\n  0x00\n    /* \"#utility.yul\":565:566   */\n  0x02\n    /* \"#utility.yul\":559:563   */\n  dup3\n    /* \"#utility.yul\":555:567   */\n  div\n    /* \"#utility.yul\":545:567   */\n  swap1\n  pop\n    /* \"#utility.yul\":612:613   */\n  0x01\n    /* \"#utility.yul\":606:610   */\n  dup3\n    /* \"#utility.yul\":602:614   */\n  and\n    /* \"#utility.yul\":633:651   */\n  dup1\n    /* \"#utility.yul\":623:704   */\n  tag_31\n  jumpi\n    /* \"#utility.yul\":689:693   */\n  0x7f\n    /* \"#utility.yul\":681:687   */\n  dup3\n    /* \"#utility.yul\":677:694   */\n  and\n    /* \"#utility.yul\":667:694   */\n  swap2\n  pop\n    /* \"#utility.yul\":623:704   */\ntag_31:\n    /* \"#utility.yul\":751:753   */\n  0x20\n    /* \"#utility.yul\":743:749   */\n  dup3\n    /* \"#utility.yul\":740:754   */\n  lt\n    /* \"#utility.yul\":720:738   */\n  dup2\n    /* \"#utility.yul\":717:755   */\n  sub\n    /* \"#utility.yul\":714:798   */\n  tag_32\n  jumpi\n    /* \"#utility.yul\":770:788   */\n  tag_33\n  tag_8\n  jump\t// in\ntag_33:\n    /* \"#utility.yul\":714:798   */\ntag_32:\n    /* \"#utility.yul\":535:804   */\n  pop\n    /* \"#utility.yul\":484:804   */\n  swap2\n  swap1\n  pop\n  jump\t// out\n    /* \"#utility.yul\":810:951   */\ntag_10:\n    /* \"#utility.yul\":859:863   */\n  0x00\n    /* \"#utility.yul\":882:885   */\n  dup2\n    /* \"#utility.yul\":874:885   */\n  swap1\n  pop\n    /* \"#utility.yul\":905:908   */\n  dup2\n    /* \"#utility.yul\":902:903   */\n  0x00\n    /* \"#utility.yul\":895:909   */\n  mstore\n    /* \"#utility.yul\":939:943   */\n  0x20\n    /* \"#utility.yul\":936:937   */\n  0x00\n    /* \"#utility.yul\":926:944   */\n  keccak256\n    /* \"#utility.yul\":918:944   */\n  swap1\n  pop\n    /* \"#utility.yul\":810:951   */\n  swap2\n  swap1\n  pop\n  jump\t// out\n    /* \"#utility.yul\":957:1050   */\ntag_11:\n    /* \"#utility.yul\":994:1000   */\n  0x00\n    /* \"#utility.yul\":1041:1043   */\n  0x20\n    /* \"#utility.yul\":1036:1038   */\n  0x1f\n    /* \"#utility.yul\":1029:1034   */\n  dup4\n    /* \"#utility.yul\":1025:1039   */\n  add\n    /* \"#utility.yul\":1021:1044   */\n  div\n    /* \"#utility.yul\":1011:1044   */\n  swap1\n  pop\n    /* \"#utility.yul\":957:1050   */\n  swap2\n  swap1\n  pop\n  jump\t// out\n    /* \"#utility.yul\":1056:1163   */\ntag_12:\n    /* \"#utility.yul\":1100:1108   */\n  0x00\n    /* \"#utility.yul\":1150:1155   */\n  dup3\n    /* \"#utility.yul\":1144:1148   */\n  dup3\n    /* \"#utility.yul\":1140:1156   */\n  shl\n    /* \"#utility.yul\":1119:1156   */\n  swap1\n  pop\n    /* \"#utility.yul\":1056:1163   */\n  swap3\n  swap2\n  pop\n  pop\n  jump\t// out\n    /* \"#utility.yul\":1169:1562   */\ntag_13:\n    /* \"#utility.yul\":1238:1244   */\n  0x00\n    /* \"#utility.yul\":1288:1289   */\n  0x08\n    /* \"#utility.yul\":1276:1286   */\n  dup4\n    /* \"#utility.yul\":1272:1290   */\n  mul\n    /* \"#utility.yul\":1311:1408   */\n  tag_38\n    /* \"#utility.yul\":1341:1407   */\n  0xffffffffffffffffffffffffffffffffffffffffffffffffffffffffffffffff\n    /* \"#utility.yul\":1330:1339   */\n  dup3\n    /* \"#utility.yul\":1311:1408   */\n  tag_12\n  jump\t// in\ntag_38:\n    /* \"#utility.yul\":1429:1468   */\n  tag_39\n    /* \"#utility.yul\":1459:1467   */\n  dup7\n    /* \"#utility.yul\":1448:1457   */\n  dup4\n    /* \"#utility.yul\":1429:1468   */\n  tag_12\n  jump\t// in\ntag_39:\n    /* \"#utility.yul\":1417:1468   */\n  swap6\n  pop\n    /* \"#utility.yul\":1501:1505   */\n  dup1\n    /* \"#utility.yul\":1497:1506   */\n  not\n    /* \"#utility.yul\":1490:1495   */\n  dup5\n    /* \"#utility.yul\":1486:1507   */\n  and\n    /* \"#utility.yul\":1477:1507   */\n  swap4\n  pop\n    /* \"#utility.yul\":1550:1554   */\n  dup1\n    /* \"#utility.yul\":1540:1548   */\n  dup7\n    /* \"#utility.yul\":1536:1555   */\n  and\n    /* \"#utility.yul\":1529:1534   */\n  dup5\n    /* \"#utility.yul\":1526:1556   */\n  or\n    /* \"#utility.yul\":1516:1556   */\n  swap3\n  pop\n    /* \"#utility.yul\":1245:1562   */\n  pop\n  pop\n    /* \"#utility.yul\":1169:1562   */\n  swap4\n  swap3\n  pop\n  pop\n  pop\n  jump\t// out\n    /* \"#utility.yul\":1568:1645   */\ntag_14:\n    /* \"#utility.yul\":1605:1612   */\n  0x00\n    /* \"#utility.yul\":1634:1639   */\n  dup2\n    /* \"#utility.yul\":1623:1639   */\n  swap1\n  pop\n    /* \"#utility.yul\":1568:1645   */\n  swap2\n  swap1\n  pop\n  jump\t// out\n    /* \"#utility.yul\":1651:1711   */\ntag_15:\n    /* \"#utility.yul\":1679:1682   */\n  0x00\n    /* \"#utility.yul\":1700:1705   */\n  dup2\n    /* \"#utility.yul\":1693:1705   */\n  swap1\n  pop\n    /* \"#utility.yul\":1651:1711   */\n  swap2\n  swap1\n  pop\n  jump\t// out\n    /* \"#utility.yul\":1717:1859   */\ntag_16:\n    /* \"#utility.yul\":1767:1776   */\n  0x00\n    /* \"#utility.yul\":1800:1853   */\n  tag_43\n    /* \"#utility.yul\":1818:1852   */\n  tag_44\n    /* \"#utility.yul\":1827:1851   */\n  tag_45\n    /* \"#utility.yul\":1845:1850   */\n  dup5\n    /* \"#utility.yul\":1827:1851   */\n  tag_14\n  jump\t// in\ntag_45:\n    /* \"#utility.yul\":1818:1852   */\n  tag_15\n  jump\t// in\ntag_44:\n    /* \"#utility.yul\":1800:1853   */\n  tag_14\n  jump\t// in\ntag_43:\n    /* \"#utility.yul\":1787:1853   */\n  swap1\n  pop\n    /* \"#utility.yul\":1717:1859   */\n  swap2\n  swap1\n  pop\n  jump\t// out\n    /* \"#utility.yul\":1865:1940   */\ntag_17:\n    /* \"#utility.yul\":1908:1911   */\n  0x00\n    /* \"#utility.yul\":1929:1934   */\n  dup2\n    /* \"#utility.yul\":1922:1934   */\n  swap1\n  pop\n    /* \"#utility.yul\":1865:1940   */\n  swap2\n  swap1\n  pop\n  jump\t// out\n    /* \"#utility.yul\":1946:2215   */\ntag_18:\n    /* \"#utility.yul\":2056:2095   */\n  tag_48\n    /* \"#utility.yul\":2087:2094   */\n  dup4\n    /* \"#utility.yul\":2056:2095   */\n  tag_16\n  jump\t// in\ntag_48:\n    /* \"#utility.yul\":2117:2208   */\n  tag_49\n    /* \"#utility.yul\":2166:2207   */\n  tag_50\n    /* \"#utility.yul\":2190:2206   */\n  dup3\n    /* \"#utility.yul\":2166:2207   */\n  tag_17\n  jump\t// in\ntag_50:\n    /* \"#utility.yul\":2158:2164   */\n  dup5\n    /* \"#utility.yul\":2151:2155   */\n  dup5\n    /* \"#utility.yul\":2145:2156   */\n  sload\n    /* \"#utility.yul\":2117:2208   */\n  tag_13\n  jump\t// in\ntag_49:\n    /* \"#utility.yul\":2111:2115   */\n  dup3\n    /* \"#utility.yul\":2104:2209   */\n  sstore\n    /* \"#utility.yul\":2022:2215   */\n  pop\n    /* \"#utility.yul\":1946:2215   */\n  pop\n  pop\n  pop\n  jump\t// out\n    /* \"#utility.yul\":2221:2294   */\ntag_19:\n    /* \"#utility.yul\":2266:2269   */\n  0x00\n    /* \"#utility.yul\":2221:2294   */\n  swap1\n  jump\t// out\n    /* \"#utility.yul\":2300:2489   */\ntag_20:\n    /* \"#utility.yul\":2377:2409   */\n  tag_53\n  tag_19\n  jump\t// in\ntag_53:\n    /* \"#utility.yul\":2418:2483   */\n  tag_54\n    /* \"#utility.yul\":2476:2482   */\n  dup2\n    /* \"#utility.yul\":2468:2474   */\n  dup5\n    /* \"#utility.yul\":2462:2466   */\n  dup5\n    /* \"#utility.yul\":2418:2483   */\n  tag_18\n  jump\t// in\ntag_54:\n    /* \"#utility.yul\":2353:2489   */\n  pop\n    /* \"#utility.yul\":2300:2489   */\n  pop\n  pop\n  jump\t// out\n    /* \"#utility.yul\":2495:2681   */\ntag_21:\n    /* \"#utility.yul\":2555:2675   */\ntag_56:\n    /* \"#utility.yul\":2572:2575   */\n  dup2\n    /* \"#utility.yul\":2565:2570   */\n  dup2\n    /* \"#utility.yul\":2562:2576   */\n  lt\n    /* \"#utility.yul\":2555:2675   */\n  iszero\n  tag_58\n  jumpi\n    /* \"#utility.yul\":2626:2665   */\n  tag_59\n    /* \"#utility.yul\":2663:2664   */\n  0x00\n    /* \"#utility.yul\":2656:2661   */\n  dup3\n    /* \"#utility.yul\":2626:2665   */\n  tag_20\n  jump\t// in\ntag_59:\n    /* \"#utility.yul\":2599:2600   */\n  0x01\n    /* \"#utility.yul\":2592:2597   */\n  dup2\n    /* \"#utility.yul\":2588:2601   */\n  add\n    /* \"#utility.yul\":2579:2601   */\n  swap1\n  pop\n    /* \"#utility.yul\":2555:2675   */\n  jump(tag_56)\ntag_58:\n    /* \"#utility.yul\":2495:2681   */\n  pop\n  pop\n  jump\t// out\n    /* \"#utility.yul\":2687:3230   */\ntag_22:\n    /* \"#utility.yul\":2788:2790   */\n  0x1f\n    /* \"#utility.yul\":2783:2786   */\n  dup3\n    /* \"#utility.yul\":2780:2791   */\n  gt\n    /* \"#utility.yul\":2777:3223   */\n  iszero\n  tag_61\n  jumpi\n    /* \"#utility.yul\":2822:2860   */\n  tag_62\n    /* \"#utility.yul\":2854:2859   */\n  dup2\n    /* \"#utility.yul\":2822:2860   */\n  tag_10\n  jump\t// in\ntag_62:\n    /* \"#utility.yul\":2906:2935   */\n  tag_63\n    /* \"#utility.yul\":2924:2934   */\n  dup5\n    /* \"#utility.yul\":2906:2935   */\n  tag_11\n  jump\t// in\ntag_63:\n    /* \"#utility.yul\":2896:2904   */\n  dup2\n    /* \"#utility.yul\":2892:2936   */\n  add\n    /* \"#utility.yul\":3089:3091   */\n  0x20\n    /* \"#utility.yul\":3077:3087   */\n  dup6\n    /* \"#utility.yul\":3074:3092   */\n  lt\n    /* \"#utility.yul\":3071:3120   */\n  iszero\n  tag_64\n  jumpi\n    /* \"#utility.yul\":3110:3118   */\n  dup2\n    /* \"#utility.yul\":3095:3118   */\n  swap1\n  pop\n    /* \"#utility.yul\":3071:3120   */\ntag_64:\n    /* \"#utility.yul\":3133:3213   */\n  tag_65\n    /* \"#utility.yul\":3189:3211   */\n  tag_66\n    /* \"#utility.yul\":3207:3210   */\n  dup6\n    /* \"#utility.yul\":3189:3211   */\n  tag_11\n  jump\t// in\ntag_66:\n    /* \"#utility.yul\":3179:3187   */\n  dup4\n    /* \"#utility.yul\":3175:3212   */\n  add\n    /* \"#utility.yul\":3162:3173   */\n  dup3\n    /* \"#utility.yul\":3133:3213   */\n  tag_21\n  jump\t// in\ntag_65:\n    /* \"#utility.yul\":2792:3223   */\n  pop\n  pop\n    /* \"#utility.yul\":2777:3223   */\ntag_61:\n    /* \"#utility.yul\":2687:3230   */\n  pop\n  pop\n  pop\n  jump\t// out\n    /* \"#utility.yul\":3236:3353   */\ntag_23:\n    /* \"#utility.yul\":3290:3298   */\n  0x00\n    /* \"#utility.yul\":3340:3345   */\n  dup3\n    /* \"#utility.yul\":3334:3338   */\n  dup3\n    /* \"#utility.yul\":3330:3346   */\n  shr\n    /* \"#utility.yul\":3309:3346   */\n  swap1\n  pop\n    /* \"#utility.yul\":3236:3353   */\n  swap3\n  swap2\n  pop\n  pop\n  jump\t// out\n    /* \"#utility.yul\":3359:3528   */\ntag_24:\n    /* \"#utility.yul\":3403:3409   */\n  0x00\n    /* \"#utility.yul\":3436:3487   */\n  tag_69\n    /* \"#utility.yul\":3484:3485   */\n  0x00\n    /* \"#utility.yul\":3480:3486   */\n  not\n    /* \"#utility.yul\":3472:3477   */\n  dup5\n    /* \"#utility.yul\":3469:3470   */\n  0x08\n    /* \"#utility.yul\":3465:3478   */\n  mul\n    /* \"#utility.yul\":3436:3487   */\n  tag_23\n  jump\t// in\ntag_69:\n    /* \"#utility.yul\":3432:3488   */\n  not\n    /* \"#utility.yul\":3517:3521   */\n  dup1\n    /* \"#utility.yul\":3511:3515   */\n  dup4\n    /* \"#utility.yul\":3507:3522   */\n  and\n    /* \"#utility.yul\":3497:3522   */\n  swap2\n  pop\n    /* \"#utility.yul\":3410:3528   */\n  pop\n    /* \"#utility.yul\":3359:3528   */\n  swap3\n  swap2\n  pop\n  pop\n  jump\t// out\n    /* \"#utility.yul\":3533:3828   */\ntag_25:\n    /* \"#utility.yul\":3609:3613   */\n  0x00\n    /* \"#utility.yul\":3755:3784   */\n  tag_71\n    /* \"#utility.yul\":3780:3783   */\n  dup4\n    /* \"#utility.yul\":3774:3778   */\n  dup4\n    /* \"#utility.yul\":3755:3784   */\n  tag_24\n  jump\t// in\ntag_71:\n    /* \"#utility.yul\":3747:3784   */\n  swap2\n  pop\n    /* \"#utility.yul\":3817:3820   */\n  dup3\n    /* \"#utility.yul\":3814:3815   */\n  0x02\n    /* \"#utility.yul\":3810:3821   */\n  mul\n    /* \"#utility.yul\":3804:3808   */\n  dup3\n    /* \"#utility.yul\":3801:3822   */\n  or\n    /* \"#utility.yul\":3793:3822   */\n  swap1\n  pop\n    /* \"#utility.yul\":3533:3828   */\n  swap3\n  swap2\n  pop\n  pop\n  jump\t// out\n    /* \"#utility.yul\":3833:5228   */\ntag_2:\n    /* \"#utility.yul\":3950:3987   */\n  tag_73\n    /* \"#utility.yul\":3983:3986   */\n  dup3\n    /* \"#utility.yul\":3950:3987   */\n  tag_6\n  jump\t// in\ntag_73:\n    /* \"#utility.yul\":4052:4070   */\n  0xffffffffffffffff\n    /* \"#utility.yul\":4044:4050   */\n  dup2\n    /* \"#utility.yul\":4041:4071   */\n  gt\n    /* \"#utility.yul\":4038:4094   */\n  iszero\n  tag_74\n  jumpi\n    /* \"#utility.yul\":4074:4092   */\n  tag_75\n  tag_7\n  jump\t// in\ntag_75:\n    /* \"#utility.yul\":4038:4094   */\ntag_74:\n    /* \"#utility.yul\":4118:4156   */\n  tag_76\n    /* \"#utility.yul\":4150:4154   */\n  dup3\n    /* \"#utility.yul\":4144:4155   */\n  sload\n    /* \"#utility.yul\":4118:4156   */\n  tag_9\n  jump\t// in\ntag_76:\n    /* \"#utility.yul\":4203:4270   */\n  tag_77\n    /* \"#utility.yul\":4263:4269   */\n  dup3\n    /* \"#utility.yul\":4255:4261   */\n  dup3\n    /* \"#utility.yul\":4249:4253   */\n  dup6\n    /* \"#utility.yul\":4203:4270   */\n  tag_22\n  jump\t// in\ntag_77:\n    /* \"#utility.yul\":4297:4298   */\n  0x00\n    /* \"#utility.yul\":4321:4325   */\n  0x20\n    /* \"#utility.yul\":4308:4325   */\n  swap1\n  pop\n    /* \"#utility.yul\":4353:4355   */\n  0x1f\n    /* \"#utility.yul\":4345:4351   */\n  dup4\n    /* \"#utility.yul\":4342:4356   */\n  gt\n    /* \"#utility.yul\":4370:4371   */\n  0x01\n    /* \"#utility.yul\":4365:4983   */\n  dup2\n  eq\n  tag_79\n  jumpi\n    /* \"#utility.yul\":5027:5028   */\n  0x00\n    /* \"#utility.yul\":5044:5050   */\n  dup5\n    /* \"#utility.yul\":5041:5118   */\n  iszero\n  tag_80\n  jumpi\n    /* \"#utility.yul\":5093:5102   */\n  dup3\n    /* \"#utility.yul\":5088:5091   */\n  dup8\n    /* \"#utility.yul\":5084:5103   */\n  add\n    /* \"#utility.yul\":5078:5104   */\n  mload\n    /* \"#utility.yul\":5069:5104   */\n  swap1\n  pop\n    /* \"#utility.yul\":5041:5118   */\ntag_80:\n    /* \"#utility.yul\":5144:5211   */\n  tag_81\n    /* \"#utility.yul\":5204:5210   */\n  dup6\n    /* \"#utility.yul\":5197:5202   */\n  dup3\n    /* \"#utility.yul\":5144:5211   */\n  tag_25\n  jump\t// in\ntag_81:\n    /* \"#utility.yul\":5138:5142   */\n  dup7\n    /* \"#utility.yul\":5131:5212   */\n  sstore\n    /* \"#utility.yul\":5000:5222   */\n  pop\n    /* \"#utility.yul\":4335:5222   */\n  jump(tag_78)\n    /* \"#utility.yul\":4365:4983   */\ntag_79:\n    /* \"#utility.yul\":4417:4421   */\n  0x1f\n    /* \"#utility.yul\":4413:4422   */\n  not\n    /* \"#utility.yul\":4405:4411   */\n  dup5\n    /* \"#utility.yul\":4401:4423   */\n  and\n    /* \"#utility.yul\":4451:4488   */\n  tag_82\n    /* \"#utility.yul\":4483:4487   */\n  dup7\n    /* \"#utility.yul\":4451:4488   */\n  tag_10\n  jump\t// in\ntag_82:\n    /* \"#utility.yul\":4510:4511   */\n  0x00\n    /* \"#utility.yul\":4524:4732   */\ntag_83:\n    /* \"#utility.yul\":4538:4545   */\n  dup3\n    /* \"#utility.yul\":4535:4536   */\n  dup2\n    /* \"#utility.yul\":4532:4546   */\n  lt\n    /* \"#utility.yul\":4524:4732   */\n  iszero\n  tag_85\n  jumpi\n    /* \"#utility.yul\":4617:4626   */\n  dup5\n    /* \"#utility.yul\":4612:4615   */\n  dup10\n    /* \"#utility.yul\":4608:4627   */\n  add\n    /* \"#utility.yul\":4602:4628   */\n  mload\n    /* \"#utility.yul\":4594:4600   */\n  dup3\n    /* \"#utility.yul\":4587:4629   */\n  sstore\n    /* \"#utility.yul\":4668:4669   */\n  0x01\n    /* \"#utility.yul\":4660:4666   */\n  dup3\n    /* \"#utility.yul\":4656:4670   */\n  add\n    /* \"#utility.yul\":4646:4670   */\n  swap2\n  pop\n    /* \"#utility.yul\":4715:4717   */\n  0x20\n    /* \"#utility.yul\":4704:4713   */\n  dup6\n    /* \"#utility.yul\":4700:4718   */\n  add\n    /* \"#utility.yul\":4687:4718   */\n  swap5\n  pop\n    /* \"#utility.yul\":4561:4565   */\n  0x20\n    /* \"#utility.yul\":4558:4559   */\n  dup2\n    /* \"#utility.yul\":4554:4566   */\n  add\n    /* \"#utility.yul\":4549:4566   */\n  swap1\n  pop\n    /* \"#utility.yul\":4524:4732   */\n  jump(tag_83)\ntag_85:\n    /* \"#utility.yul\":4760:4766   */\n  dup7\n    /* \"#utility.yul\":4751:4758   */\n  dup4\n    /* \"#utility.yul\":4748:4767   */\n  lt\n    /* \"#utility.yul\":4745:4924   */\n  iszero\n  tag_86\n  jumpi\n    /* \"#utility.yul\":4818:4827   */\n  dup5\n    /* \"#utility.yul\":4813:4816   */\n  dup10\n    /* \"#utility.yul\":4809:4828   */\n  add\n    /* \"#utility.yul\":4803:4829   */\n  mload\n    /* \"#utility.yul\":4861:4909   */\n  tag_87\n    /* \"#utility.yul\":4903:4907   */\n  0x1f\n    /* \"#utility.yul\":4895:4901   */\n  dup10\n    /* \"#utility.yul\":4891:4908   */\n  and\n    /* \"#utility.yul\":4880:4889   */\n  dup3\n    /* \"#utility.yul\":4861:4909   */\n  tag_24\n  jump\t// in\ntag_87:\n    /* \"#utility.yul\":4853:4859   */\n  dup4\n    /* \"#utility.yul\":4846:4910   */\n  sstore\n    /* \"#utility.yul\":4768:4924   */\n  pop\n    /* \"#utility.yul\":4745:4924   */\ntag_86:\n    /* \"#utility.yul\":4970:4971   */\n  0x01\n    /* \"#utility.yul\":4966:4967   */\n  0x02\n    /* \"#utility.yul\":4958:4964   */\n  dup9\n    /* \"#utility.yul\":4954:4968   */\n  mul\n    /* \"#utility.yul\":4950:4972   */\n  add\n    /* \"#utility.yul\":4944:4948   */\n  dup9\n    /* \"#utility.yul\":4937:4973   */\n  sstore\n    /* \"#utility.yul\":4372:4983   */\n  pop\n  pop\n  pop\n    /* \"#utility.yul\":4335:5222   */\ntag_78:\n  pop\n    /* \"#utility.yul\":3925:5228   */\n  pop\n  pop\n  pop\n    /* \"#utility.yul\":3833:5228   */\n  pop\n  pop\n  jump\t// out\n    /* \"contracts/SimpleStorage.sol\":84:2119  contract SimpleStorage{... */\ntag_5:\n  dataSize(sub_0)\n  dup1\n  dataOffset(sub_0)\n  0x00\n  codecopy\n  0x00\n  return\nstop\n\nsub_0: assembly {\n        /* \"contracts/SimpleStorage.sol\":84:2119  contract SimpleStorage{... */\n      mstore(0x40, 0x80)\n      callvalue\n      dup1\n      iszero\n      tag_1\n      jumpi\n      0x00\n      dup1\n      revert\n    tag_1:\n      pop\n      jumpi(tag_2, lt(calldatasize, 0x04))\n      shr(0xe0, calldataload(0x00))\n      dup1\n      0x4f2be91f\n      gt\n      tag_10\n      jumpi\n      dup1\n      0x4f2be91f\n      eq\n      tag_6\n      jumpi\n      dup1\n      0x4f685fc9\n      eq\n      tag_7\n      jumpi\n      dup1\n      0xab3ee911\n      eq\n      tag_8\n      jumpi\n      dup1\n      0xf304146e\n      eq\n      tag_9\n      jumpi\n      jump(tag_2)\n    tag_10:\n      dup1\n      0x032ce9aa\n      eq\n      tag_3\n      jumpi\n      dup1\n      0x2e64cec1\n      eq\n      tag_4\n      jumpi\n      dup1\n      0x46cb59c2\n      eq\n      tag_5\n      jumpi\n    tag_2:\n      0x00\n      dup1\n      revert\n        /* \"contracts/SimpleStorage.sol\":1629:1981  function addPerson(string memory _name, uint256 _favNum, bool _smart) public{... */\n    tag_3:\n      tag_11\n      0x04\n      dup1\n      calldatasize\n      sub\n      dup2\n      add\n      swap1\n      tag_12\n      swap2\n      swap1\n      tag_13\n      jump\t// in\n    tag_12:\n      tag_14\n      jump\t// in\n    tag_11:\n      stop\n        /* \"contracts/SimpleStorage.sol\":955:1045  function retrieve() public  view returns   (uint256) {... */\n    tag_4:\n      tag_15\n      tag_16\n      jump\t// in\n    tag_15:\n      mload(0x40)\n      tag_17\n      swap2\n      swap1\n      tag_18\n      jump\t// in\n    tag_17:\n      mload(0x40)\n      dup1\n      swap2\n      sub\n      swap1\n      return\n        /* \"contracts/SimpleStorage.sol\":1404:1483  People public person1 = People({favorteNum : 52, name : \"Adarsh\", smart: true}) */\n    tag_5:\n      tag_19\n      tag_20\n      jump\t// in\n    tag_19:\n      mload(0x40)\n      tag_21\n      swap4\n      swap3\n      swap2\n      swap1\n      tag_22\n      jump\t// in\n    tag_21:\n      mload(0x40)\n      dup1\n      swap2\n      sub\n      swap1\n      return\n        /* \"contracts/SimpleStorage.sol\":1108:1185  function add() public  pure returns (uint256) {... */\n    tag_6:\n      tag_23\n      tag_24\n      jump\t// in\n    tag_23:\n      mload(0x40)\n      tag_25\n      swap2\n      swap1\n      tag_18\n      jump\t// in\n    tag_25:\n      mload(0x40)\n      dup1\n      swap2\n      sub\n      swap1\n      return\n        /* \"contracts/SimpleStorage.sol\":757:894  function myStore(uint256 _favoriteNum) public {... */\n    tag_7:\n      tag_26\n      0x04\n      dup1\n      calldatasize\n      sub\n      dup2\n      add\n      swap1\n      tag_27\n      swap2\n      swap1\n      tag_28\n      jump\t// in\n    tag_27:\n      tag_29\n      jump\t// in\n    tag_26:\n      stop\n        /* \"contracts/SimpleStorage.sol\":1596:1620  uint256[4] public numArr */\n    tag_8:\n      tag_30\n      0x04\n      dup1\n      calldatasize\n      sub\n      dup2\n      add\n      swap1\n      tag_31\n      swap2\n      swap1\n      tag_28\n      jump\t// in\n    tag_31:\n      tag_32\n      jump\t// in\n    tag_30:\n      mload(0x40)\n      tag_33\n      swap2\n      swap1\n      tag_18\n      jump\t// in\n    tag_33:\n      mload(0x40)\n      dup1\n      swap2\n      sub\n      swap1\n      return\n        /* \"contracts/SimpleStorage.sol\":1542:1568  People[] public  peopleArr */\n    tag_9:\n      tag_34\n      0x04\n      dup1\n      calldatasize\n      sub\n      dup2\n      add\n      swap1\n      tag_35\n      swap2\n      swap1\n      tag_28\n      jump\t// in\n    tag_35:\n      tag_36\n      jump\t// in\n    tag_34:\n      mload(0x40)\n      tag_37\n      swap4\n      swap3\n      swap2\n      swap1\n      tag_22\n      jump\t// in\n    tag_37:\n      mload(0x40)\n      dup1\n      swap2\n      sub\n      swap1\n      return\n        /* \"contracts/SimpleStorage.sol\":1629:1981  function addPerson(string memory _name, uint256 _favNum, bool _smart) public{... */\n    tag_14:\n        /* \"contracts/SimpleStorage.sol\":1757:1766  peopleArr */\n      0x0a\n        /* \"contracts/SimpleStorage.sol\":1772:1802  People(_favNum, _name, _smart) */\n      mload(0x40)\n      dup1\n      0x60\n      add\n      0x40\n      mstore\n      dup1\n        /* \"contracts/SimpleStorage.sol\":1779:1786  _favNum */\n      dup5\n        /* \"contracts/SimpleStorage.sol\":1772:1802  People(_favNum, _name, _smart) */\n      dup2\n      mstore\n      0x20\n      add\n        /* \"contracts/SimpleStorage.sol\":1788:1793  _name */\n      dup6\n        /* \"contracts/SimpleStorage.sol\":1772:1802  People(_favNum, _name, _smart) */\n      dup2\n      mstore\n      0x20\n      add\n        /* \"contracts/SimpleStorage.sol\":1795:1801  _smart */\n      dup4\n        /* \"contracts/SimpleStorage.sol\":1772:1802  People(_favNum, _name, _smart) */\n      iszero\n      iszero\n      dup2\n      mstore\n      pop\n        /* \"contracts/SimpleStorage.sol\":1757:1803  peopleArr.push(People(_favNum, _name, _smart)) */\n      swap1\n      dup1\n      0x01\n      dup2\n      sload\n      add\n      dup1\n      dup3\n      sstore\n      dup1\n      swap2\n      pop\n      pop\n      0x01\n      swap1\n      sub\n      swap1\n      0x00\n      mstore\n      keccak256(0x00, 0x20)\n      swap1\n      0x03\n      mul\n      add\n      0x00\n      swap1\n      swap2\n      swap1\n      swap2\n      swap1\n      swap2\n      pop\n      0x00\n      dup3\n      add\n      mload\n      dup2\n      0x00\n      add\n      sstore\n      0x20\n      dup3\n      add\n      mload\n      dup2\n      0x01\n      add\n      swap1\n      dup2\n      tag_40\n      swap2\n      swap1\n      tag_41\n      jump\t// in\n    tag_40:\n      pop\n      0x40\n      dup3\n      add\n      mload\n      dup2\n      0x02\n      add\n      exp(0x0100, 0x00)\n      dup2\n      sload\n      dup2\n      0xff\n      mul\n      not\n      and\n      swap1\n      dup4\n      iszero\n      iszero\n      mul\n      or\n      swap1\n      sstore\n      pop\n      pop\n      pop\n        /* \"contracts/SimpleStorage.sol\":1840:1863  People memory newPerson */\n      0x00\n        /* \"contracts/SimpleStorage.sol\":1866:1923  People({favorteNum: _favNum, name: _name, smart: _smart}) */\n      mload(0x40)\n      dup1\n      0x60\n      add\n      0x40\n      mstore\n      dup1\n        /* \"contracts/SimpleStorage.sol\":1886:1893  _favNum */\n      dup5\n        /* \"contracts/SimpleStorage.sol\":1866:1923  People({favorteNum: _favNum, name: _name, smart: _smart}) */\n      dup2\n      mstore\n      0x20\n      add\n        /* \"contracts/SimpleStorage.sol\":1901:1906  _name */\n      dup6\n        /* \"contracts/SimpleStorage.sol\":1866:1923  People({favorteNum: _favNum, name: _name, smart: _smart}) */\n      dup2\n      mstore\n      0x20\n      add\n        /* \"contracts/SimpleStorage.sol\":1915:1921  _smart */\n      dup4\n        /* \"contracts/SimpleStorage.sol\":1866:1923  People({favorteNum: _favNum, name: _name, smart: _smart}) */\n      iszero\n      iszero\n      dup2\n      mstore\n      pop\n        /* \"contracts/SimpleStorage.sol\":1840:1923  People memory newPerson = People({favorteNum: _favNum, name: _name, smart: _smart}) */\n      swap1\n      pop\n        /* \"contracts/SimpleStorage.sol\":1944:1953  peopleArr */\n      0x0a\n        /* \"contracts/SimpleStorage.sol\":1959:1968  newPerson */\n      dup2\n        /* \"contracts/SimpleStorage.sol\":1944:1969  peopleArr.push(newPerson) */\n      swap1\n      dup1\n      0x01\n      dup2\n      sload\n      add\n      dup1\n      dup3\n      sstore\n      dup1\n      swap2\n      pop\n      pop\n      0x01\n      swap1\n      sub\n      swap1\n      0x00\n      mstore\n      keccak256(0x00, 0x20)\n      swap1\n      0x03\n      mul\n      add\n      0x00\n      swap1\n      swap2\n      swap1\n      swap2\n      swap1\n      swap2\n      pop\n      0x00\n      dup3\n      add\n      mload\n      dup2\n      0x00\n      add\n      sstore\n      0x20\n      dup3\n      add\n      mload\n      dup2\n      0x01\n      add\n      swap1\n      dup2\n      tag_43\n      swap2\n      swap1\n      tag_41\n      jump\t// in\n    tag_43:\n      pop\n      0x40\n      dup3\n      add\n      mload\n      dup2\n      0x02\n      add\n      exp(0x0100, 0x00)\n      dup2\n      sload\n      dup2\n      0xff\n      mul\n      not\n      and\n      swap1\n      dup4\n      iszero\n      iszero\n      mul\n      or\n      swap1\n      sstore\n      pop\n      pop\n      pop\n        /* \"contracts/SimpleStorage.sol\":1705:1981  {... */\n      pop\n        /* \"contracts/SimpleStorage.sol\":1629:1981  function addPerson(string memory _name, uint256 _favNum, bool _smart) public{... */\n      pop\n      pop\n      pop\n      jump\t// out\n        /* \"contracts/SimpleStorage.sol\":955:1045  function retrieve() public  view returns   (uint256) {... */\n    tag_16:\n        /* \"contracts/SimpleStorage.sol\":999:1006  uint256 */\n      0x00\n        /* \"contracts/SimpleStorage.sol\":1027:1037  favorteNum */\n      sload(0x01)\n        /* \"contracts/SimpleStorage.sol\":1019:1037  return  favorteNum */\n      swap1\n      pop\n        /* \"contracts/SimpleStorage.sol\":955:1045  function retrieve() public  view returns   (uint256) {... */\n      swap1\n      jump\t// out\n        /* \"contracts/SimpleStorage.sol\":1404:1483  People public person1 = People({favorteNum : 52, name : \"Adarsh\", smart: true}) */\n    tag_20:\n      0x07\n      dup1\n      0x00\n      add\n      sload\n      swap1\n      dup1\n      0x01\n      add\n      dup1\n      sload\n      tag_45\n      swap1\n      tag_46\n      jump\t// in\n    tag_45:\n      dup1\n      0x1f\n      add\n      0x20\n      dup1\n      swap2\n      div\n      mul\n      0x20\n      add\n      mload(0x40)\n      swap1\n      dup2\n      add\n      0x40\n      mstore\n      dup1\n      swap3\n      swap2\n      swap1\n      dup2\n      dup2\n      mstore\n      0x20\n      add\n      dup3\n      dup1\n      sload\n      tag_47\n      swap1\n      tag_46\n      jump\t// in\n    tag_47:\n      dup1\n      iszero\n      tag_48\n      jumpi\n      dup1\n      0x1f\n      lt\n      tag_49\n      jumpi\n      0x0100\n      dup1\n      dup4\n      sload\n      div\n      mul\n      dup4\n      mstore\n      swap2\n      0x20\n      add\n      swap2\n      jump(tag_48)\n    tag_49:\n      dup3\n      add\n      swap2\n      swap1\n      0x00\n      mstore\n      keccak256(0x00, 0x20)\n      swap1\n    tag_50:\n      dup2\n      sload\n      dup2\n      mstore\n      swap1\n      0x01\n      add\n      swap1\n      0x20\n      add\n      dup1\n      dup4\n      gt\n      tag_50\n      jumpi\n      dup3\n      swap1\n      sub\n      0x1f\n      and\n      dup3\n      add\n      swap2\n    tag_48:\n      pop\n      pop\n      pop\n      pop\n      pop\n      swap1\n      dup1\n      0x02\n      add\n      0x00\n      swap1\n      sload\n      swap1\n      0x0100\n      exp\n      swap1\n      div\n      0xff\n      and\n      swap1\n      pop\n      dup4\n      jump\t// out\n        /* \"contracts/SimpleStorage.sol\":1108:1185  function add() public  pure returns (uint256) {... */\n    tag_24:\n        /* \"contracts/SimpleStorage.sol\":1145:1152  uint256 */\n      0x00\n        /* \"contracts/SimpleStorage.sol\":1172:1176  1+50 */\n      0x33\n        /* \"contracts/SimpleStorage.sol\":1165:1177  return(1+50) */\n      swap1\n      pop\n        /* \"contracts/SimpleStorage.sol\":1108:1185  function add() public  pure returns (uint256) {... */\n      swap1\n      jump\t// out\n        /* \"contracts/SimpleStorage.sol\":757:894  function myStore(uint256 _favoriteNum) public {... */\n    tag_29:\n        /* \"contracts/SimpleStorage.sol\":827:839  _favoriteNum */\n      dup1\n        /* \"contracts/SimpleStorage.sol\":814:824  favorteNum */\n      0x01\n        /* \"contracts/SimpleStorage.sol\":814:839  favorteNum = _favoriteNum */\n      dup2\n      swap1\n      sstore\n      pop\n        /* \"contracts/SimpleStorage.sol\":864:865  1 */\n      0x01\n        /* \"contracts/SimpleStorage.sol\":850:860  favorteNum */\n      dup1\n      0x00\n        /* \"contracts/SimpleStorage.sol\":850:865  favorteNum += 1 */\n      dup3\n      dup3\n      sload\n      tag_53\n      swap2\n      swap1\n      tag_54\n      jump\t// in\n    tag_53:\n      swap3\n      pop\n      pop\n      dup2\n      swap1\n      sstore\n      pop\n        /* \"contracts/SimpleStorage.sol\":876:886  retrieve() */\n      tag_55\n        /* \"contracts/SimpleStorage.sol\":876:884  retrieve */\n      tag_16\n        /* \"contracts/SimpleStorage.sol\":876:886  retrieve() */\n      jump\t// in\n    tag_55:\n      pop\n        /* \"contracts/SimpleStorage.sol\":757:894  function myStore(uint256 _favoriteNum) public {... */\n      pop\n      jump\t// out\n        /* \"contracts/SimpleStorage.sol\":1596:1620  uint256[4] public numArr */\n    tag_32:\n      0x0b\n      dup2\n      0x04\n      dup2\n      lt\n      tag_56\n      jumpi\n      0x00\n      dup1\n      revert\n    tag_56:\n      add\n      0x00\n      swap2\n      pop\n      swap1\n      pop\n      sload\n      dup2\n      jump\t// out\n        /* \"contracts/SimpleStorage.sol\":1542:1568  People[] public  peopleArr */\n    tag_36:\n      0x0a\n      dup2\n      dup2\n      sload\n      dup2\n      lt\n      tag_58\n      jumpi\n      0x00\n      dup1\n      revert\n    tag_58:\n      swap1\n      0x00\n      mstore\n      keccak256(0x00, 0x20)\n      swap1\n      0x03\n      mul\n      add\n      0x00\n      swap2\n      pop\n      swap1\n      pop\n      dup1\n      0x00\n      add\n      sload\n      swap1\n      dup1\n      0x01\n      add\n      dup1\n      sload\n      tag_60\n      swap1\n      tag_46\n      jump\t// in\n    tag_60:\n      dup1\n      0x1f\n      add\n      0x20\n      dup1\n      swap2\n      div\n      mul\n      0x20\n      add\n      mload(0x40)\n      swap1\n      dup2\n      add\n      0x40\n      mstore\n      dup1\n      swap3\n      swap2\n      swap1\n      dup2\n      dup2\n      mstore\n      0x20\n      add\n      dup3\n      dup1\n      sload\n      tag_61\n      swap1\n      tag_46\n      jump\t// in\n    tag_61:\n      dup1\n      iszero\n      tag_62\n      jumpi\n      dup1\n      0x1f\n      lt\n      tag_63\n      jumpi\n      0x0100\n      dup1\n      dup4\n      sload\n      div\n      mul\n      dup4\n      mstore\n      swap2\n      0x20\n      add\n      swap2\n      jump(tag_62)\n    tag_63:\n      dup3\n      add\n      swap2\n      swap1\n      0x00\n      mstore\n      keccak256(0x00, 0x20)\n      swap1\n    tag_64:\n      dup2\n      sload\n      dup2\n      mstore\n      swap1\n      0x01\n      add\n      swap1\n      0x20\n      add\n      dup1\n      dup4\n      gt\n      tag_64\n      jumpi\n      dup3\n      swap1\n      sub\n      0x1f\n      and\n      dup3\n      add\n      swap2\n    tag_62:\n      pop\n      pop\n      pop\n      pop\n      pop\n      swap1\n      dup1\n      0x02\n      add\n      0x00\n      swap1\n      sload\n      swap1\n      0x0100\n      exp\n      swap1\n      div\n      0xff\n      and\n      swap1\n      pop\n      dup4\n      jump\t// out\n        /* \"#utility.yul\":7:82   */\n    tag_65:\n        /* \"#utility.yul\":40:46   */\n      0x00\n        /* \"#utility.yul\":73:75   */\n      0x40\n        /* \"#utility.yul\":67:76   */\n      mload\n        /* \"#utility.yul\":57:76   */\n      swap1\n      pop\n        /* \"#utility.yul\":7:82   */\n      swap1\n      jump\t// out\n        /* \"#utility.yul\":88:205   */\n    tag_66:\n        /* \"#utility.yul\":197:198   */\n      0x00\n        /* \"#utility.yul\":194:195   */\n      dup1\n        /* \"#utility.yul\":187:199   */\n      revert\n        /* \"#utility.yul\":211:328   */\n    tag_67:\n        /* \"#utility.yul\":320:321   */\n      0x00\n        /* \"#utility.yul\":317:318   */\n      dup1\n        /* \"#utility.yul\":310:322   */\n      revert\n        /* \"#utility.yul\":334:451   */\n    tag_68:\n        /* \"#utility.yul\":443:444   */\n      0x00\n        /* \"#utility.yul\":440:441   */\n      dup1\n        /* \"#utility.yul\":433:445   */\n      revert\n        /* \"#utility.yul\":457:574   */\n    tag_69:\n        /* \"#utility.yul\":566:567   */\n      0x00\n        /* \"#utility.yul\":563:564   */\n      dup1\n        /* \"#utility.yul\":556:568   */\n      revert\n        /* \"#utility.yul\":580:682   */\n    tag_70:\n        /* \"#utility.yul\":621:627   */\n      0x00\n        /* \"#utility.yul\":672:674   */\n      0x1f\n        /* \"#utility.yul\":668:675   */\n      not\n        /* \"#utility.yul\":663:665   */\n      0x1f\n        /* \"#utility.yul\":656:661   */\n      dup4\n        /* \"#utility.yul\":652:666   */\n      add\n        /* \"#utility.yul\":648:676   */\n      and\n        /* \"#utility.yul\":638:676   */\n      swap1\n      pop\n        /* \"#utility.yul\":580:682   */\n      swap2\n      swap1\n      pop\n      jump\t// out\n        /* \"#utility.yul\":688:868   */\n    tag_71:\n        /* \"#utility.yul\":736:813   */\n      0x4e487b7100000000000000000000000000000000000000000000000000000000\n        /* \"#utility.yul\":733:734   */\n      0x00\n        /* \"#utility.yul\":726:814   */\n      mstore\n        /* \"#utility.yul\":833:837   */\n      0x41\n        /* \"#utility.yul\":830:831   */\n      0x04\n        /* \"#utility.yul\":823:838   */\n      mstore\n        /* \"#utility.yul\":857:861   */\n      0x24\n        /* \"#utility.yul\":854:855   */\n      0x00\n        /* \"#utility.yul\":847:862   */\n      revert\n        /* \"#utility.yul\":874:1155   */\n    tag_72:\n        /* \"#utility.yul\":957:984   */\n      tag_116\n        /* \"#utility.yul\":979:983   */\n      dup3\n        /* \"#utility.yul\":957:984   */\n      tag_70\n      jump\t// in\n    tag_116:\n        /* \"#utility.yul\":949:955   */\n      dup2\n        /* \"#utility.yul\":945:985   */\n      add\n        /* \"#utility.yul\":1087:1093   */\n      dup2\n        /* \"#utility.yul\":1075:1085   */\n      dup2\n        /* \"#utility.yul\":1072:1094   */\n      lt\n        /* \"#utility.yul\":1051:1069   */\n      0xffffffffffffffff\n        /* \"#utility.yul\":1039:1049   */\n      dup3\n        /* \"#utility.yul\":1036:1070   */\n      gt\n        /* \"#utility.yul\":1033:1095   */\n      or\n        /* \"#utility.yul\":1030:1118   */\n      iszero\n      tag_117\n      jumpi\n        /* \"#utility.yul\":1098:1116   */\n      tag_118\n      tag_71\n      jump\t// in\n    tag_118:\n        /* \"#utility.yul\":1030:1118   */\n    tag_117:\n        /* \"#utility.yul\":1138:1148   */\n      dup1\n        /* \"#utility.yul\":1134:1136   */\n      0x40\n        /* \"#utility.yul\":1127:1149   */\n      mstore\n        /* \"#utility.yul\":917:1155   */\n      pop\n        /* \"#utility.yul\":874:1155   */\n      pop\n      pop\n      jump\t// out\n        /* \"#utility.yul\":1161:1290   */\n    tag_73:\n        /* \"#utility.yul\":1195:1201   */\n      0x00\n        /* \"#utility.yul\":1222:1242   */\n      tag_120\n      tag_65\n      jump\t// in\n    tag_120:\n        /* \"#utility.yul\":1212:1242   */\n      swap1\n      pop\n        /* \"#utility.yul\":1251:1284   */\n      tag_121\n        /* \"#utility.yul\":1279:1283   */\n      dup3\n        /* \"#utility.yul\":1271:1277   */\n      dup3\n        /* \"#utility.yul\":1251:1284   */\n      tag_72\n      jump\t// in\n    tag_121:\n        /* \"#utility.yul\":1161:1290   */\n      swap2\n      swap1\n      pop\n      jump\t// out\n        /* \"#utility.yul\":1296:1604   */\n    tag_74:\n        /* \"#utility.yul\":1358:1362   */\n      0x00\n        /* \"#utility.yul\":1448:1466   */\n      0xffffffffffffffff\n        /* \"#utility.yul\":1440:1446   */\n      dup3\n        /* \"#utility.yul\":1437:1467   */\n      gt\n        /* \"#utility.yul\":1434:1490   */\n      iszero\n      tag_123\n      jumpi\n        /* \"#utility.yul\":1470:1488   */\n      tag_124\n      tag_71\n      jump\t// in\n    tag_124:\n        /* \"#utility.yul\":1434:1490   */\n    tag_123:\n        /* \"#utility.yul\":1508:1537   */\n      tag_125\n        /* \"#utility.yul\":1530:1536   */\n      dup3\n        /* \"#utility.yul\":1508:1537   */\n      tag_70\n      jump\t// in\n    tag_125:\n        /* \"#utility.yul\":1500:1537   */\n      swap1\n      pop\n        /* \"#utility.yul\":1592:1596   */\n      0x20\n        /* \"#utility.yul\":1586:1590   */\n      dup2\n        /* \"#utility.yul\":1582:1597   */\n      add\n        /* \"#utility.yul\":1574:1597   */\n      swap1\n      pop\n        /* \"#utility.yul\":1296:1604   */\n      swap2\n      swap1\n      pop\n      jump\t// out\n        /* \"#utility.yul\":1610:1758   */\n    tag_75:\n        /* \"#utility.yul\":1708:1714   */\n      dup3\n        /* \"#utility.yul\":1703:1706   */\n      dup2\n        /* \"#utility.yul\":1698:1701   */\n      dup4\n        /* \"#utility.yul\":1685:1715   */\n      calldatacopy\n        /* \"#utility.yul\":1749:1750   */\n      0x00\n        /* \"#utility.yul\":1740:1746   */\n      dup4\n        /* \"#utility.yul\":1735:1738   */\n      dup4\n        /* \"#utility.yul\":1731:1747   */\n      add\n        /* \"#utility.yul\":1724:1751   */\n      mstore\n        /* \"#utility.yul\":1610:1758   */\n      pop\n      pop\n      pop\n      jump\t// out\n        /* \"#utility.yul\":1764:2189   */\n    tag_76:\n        /* \"#utility.yul\":1842:1847   */\n      0x00\n        /* \"#utility.yul\":1867:1933   */\n      tag_128\n        /* \"#utility.yul\":1883:1932   */\n      tag_129\n        /* \"#utility.yul\":1925:1931   */\n      dup5\n        /* \"#utility.yul\":1883:1932   */\n      tag_74\n      jump\t// in\n    tag_129:\n        /* \"#utility.yul\":1867:1933   */\n      tag_73\n      jump\t// in\n    tag_128:\n        /* \"#utility.yul\":1858:1933   */\n      swap1\n      pop\n        /* \"#utility.yul\":1956:1962   */\n      dup3\n        /* \"#utility.yul\":1949:1954   */\n      dup2\n        /* \"#utility.yul\":1942:1963   */\n      mstore\n        /* \"#utility.yul\":1994:1998   */\n      0x20\n        /* \"#utility.yul\":1987:1992   */\n      dup2\n        /* \"#utility.yul\":1983:1999   */\n      add\n        /* \"#utility.yul\":2032:2035   */\n      dup5\n        /* \"#utility.yul\":2023:2029   */\n      dup5\n        /* \"#utility.yul\":2018:2021   */\n      dup5\n        /* \"#utility.yul\":2014:2030   */\n      add\n        /* \"#utility.yul\":2011:2036   */\n      gt\n        /* \"#utility.yul\":2008:2120   */\n      iszero\n      tag_130\n      jumpi\n        /* \"#utility.yul\":2039:2118   */\n      tag_131\n      tag_69\n      jump\t// in\n    tag_131:\n        /* \"#utility.yul\":2008:2120   */\n    tag_130:\n        /* \"#utility.yul\":2129:2183   */\n      tag_132\n        /* \"#utility.yul\":2176:2182   */\n      dup5\n        /* \"#utility.yul\":2171:2174   */\n      dup3\n        /* \"#utility.yul\":2166:2169   */\n      dup6\n        /* \"#utility.yul\":2129:2183   */\n      tag_75\n      jump\t// in\n    tag_132:\n        /* \"#utility.yul\":1848:2189   */\n      pop\n        /* \"#utility.yul\":1764:2189   */\n      swap4\n      swap3\n      pop\n      pop\n      pop\n      jump\t// out\n        /* \"#utility.yul\":2209:2549   */\n    tag_77:\n        /* \"#utility.yul\":2265:2270   */\n      0x00\n        /* \"#utility.yul\":2314:2317   */\n      dup3\n        /* \"#utility.yul\":2307:2311   */\n      0x1f\n        /* \"#utility.yul\":2299:2305   */\n      dup4\n        /* \"#utility.yul\":2295:2312   */\n      add\n        /* \"#utility.yul\":2291:2318   */\n      slt\n        /* \"#utility.yul\":2281:2403   */\n      tag_134\n      jumpi\n        /* \"#utility.yul\":2322:2401   */\n      tag_135\n      tag_68\n      jump\t// in\n    tag_135:\n        /* \"#utility.yul\":2281:2403   */\n    tag_134:\n        /* \"#utility.yul\":2439:2445   */\n      dup2\n        /* \"#utility.yul\":2426:2446   */\n      calldataload\n        /* \"#utility.yul\":2464:2543   */\n      tag_136\n        /* \"#utility.yul\":2539:2542   */\n      dup5\n        /* \"#utility.yul\":2531:2537   */\n      dup3\n        /* \"#utility.yul\":2524:2528   */\n      0x20\n        /* \"#utility.yul\":2516:2522   */\n      dup7\n        /* \"#utility.yul\":2512:2529   */\n      add\n        /* \"#utility.yul\":2464:2543   */\n      tag_76\n      jump\t// in\n    tag_136:\n        /* \"#utility.yul\":2455:2543   */\n      swap2\n      pop\n        /* \"#utility.yul\":2271:2549   */\n      pop\n        /* \"#utility.yul\":2209:2549   */\n      swap3\n      swap2\n      pop\n      pop\n      jump\t// out\n        /* \"#utility.yul\":2555:2632   */\n    tag_78:\n        /* \"#utility.yul\":2592:2599   */\n      0x00\n        /* \"#utility.yul\":2621:2626   */\n      dup2\n        /* \"#utility.yul\":2610:2626   */\n      swap1\n      pop\n        /* \"#utility.yul\":2555:2632   */\n      swap2\n      swap1\n      pop\n      jump\t// out\n        /* \"#utility.yul\":2638:2760   */\n    tag_79:\n        /* \"#utility.yul\":2711:2735   */\n      tag_139\n        /* \"#utility.yul\":2729:2734   */\n      dup2\n        /* \"#utility.yul\":2711:2735   */\n      tag_78\n      jump\t// in\n    tag_139:\n        /* \"#utility.yul\":2704:2709   */\n      dup2\n        /* \"#utility.yul\":2701:2736   */\n      eq\n        /* \"#utility.yul\":2691:2754   */\n      tag_140\n      jumpi\n        /* \"#utility.yul\":2750:2751   */\n      0x00\n        /* \"#utility.yul\":2747:2748   */\n      dup1\n        /* \"#utility.yul\":2740:2752   */\n      revert\n        /* \"#utility.yul\":2691:2754   */\n    tag_140:\n        /* \"#utility.yul\":2638:2760   */\n      pop\n      jump\t// out\n        /* \"#utility.yul\":2766:2905   */\n    tag_80:\n        /* \"#utility.yul\":2812:2817   */\n      0x00\n        /* \"#utility.yul\":2850:2856   */\n      dup2\n        /* \"#utility.yul\":2837:2857   */\n      calldataload\n        /* \"#utility.yul\":2828:2857   */\n      swap1\n      pop\n        /* \"#utility.yul\":2866:2899   */\n      tag_142\n        /* \"#utility.yul\":2893:2898   */\n      dup2\n        /* \"#utility.yul\":2866:2899   */\n      tag_79\n      jump\t// in\n    tag_142:\n        /* \"#utility.yul\":2766:2905   */\n      swap3\n      swap2\n      pop\n      pop\n      jump\t// out\n        /* \"#utility.yul\":2911:3001   */\n    tag_81:\n        /* \"#utility.yul\":2945:2952   */\n      0x00\n        /* \"#utility.yul\":2988:2993   */\n      dup2\n        /* \"#utility.yul\":2981:2994   */\n      iszero\n        /* \"#utility.yul\":2974:2995   */\n      iszero\n        /* \"#utility.yul\":2963:2995   */\n      swap1\n      pop\n        /* \"#utility.yul\":2911:3001   */\n      swap2\n      swap1\n      pop\n      jump\t// out\n        /* \"#utility.yul\":3007:3123   */\n    tag_82:\n        /* \"#utility.yul\":3077:3098   */\n      tag_145\n        /* \"#utility.yul\":3092:3097   */\n      dup2\n        /* \"#utility.yul\":3077:3098   */\n      tag_81\n      jump\t// in\n    tag_145:\n        /* \"#utility.yul\":3070:3075   */\n      dup2\n        /* \"#utility.yul\":3067:3099   */\n      eq\n        /* \"#utility.yul\":3057:3117   */\n      tag_146\n      jumpi\n        /* \"#utility.yul\":3113:3114   */\n      0x00\n        /* \"#utility.yul\":3110:3111   */\n      dup1\n        /* \"#utility.yul\":3103:3115   */\n      revert\n        /* \"#utility.yul\":3057:3117   */\n    tag_146:\n        /* \"#utility.yul\":3007:3123   */\n      pop\n      jump\t// out\n        /* \"#utility.yul\":3129:3262   */\n    tag_83:\n        /* \"#utility.yul\":3172:3177   */\n      0x00\n        /* \"#utility.yul\":3210:3216   */\n      dup2\n        /* \"#utility.yul\":3197:3217   */\n      calldataload\n        /* \"#utility.yul\":3188:3217   */\n      swap1\n      pop\n        /* \"#utility.yul\":3226:3256   */\n      tag_148\n        /* \"#utility.yul\":3250:3255   */\n      dup2\n        /* \"#utility.yul\":3226:3256   */\n      tag_82\n      jump\t// in\n    tag_148:\n        /* \"#utility.yul\":3129:3262   */\n      swap3\n      swap2\n      pop\n      pop\n      jump\t// out\n        /* \"#utility.yul\":3268:4061   */\n    tag_13:\n        /* \"#utility.yul\":3352:3358   */\n      0x00\n        /* \"#utility.yul\":3360:3366   */\n      dup1\n        /* \"#utility.yul\":3368:3374   */\n      0x00\n        /* \"#utility.yul\":3417:3419   */\n      0x60\n        /* \"#utility.yul\":3405:3414   */\n      dup5\n        /* \"#utility.yul\":3396:3403   */\n      dup7\n        /* \"#utility.yul\":3392:3415   */\n      sub\n        /* \"#utility.yul\":3388:3420   */\n      slt\n        /* \"#utility.yul\":3385:3504   */\n      iszero\n      tag_150\n      jumpi\n        /* \"#utility.yul\":3423:3502   */\n      tag_151\n      tag_66\n      jump\t// in\n    tag_151:\n        /* \"#utility.yul\":3385:3504   */\n    tag_150:\n        /* \"#utility.yul\":3571:3572   */\n      0x00\n        /* \"#utility.yul\":3560:3569   */\n      dup5\n        /* \"#utility.yul\":3556:3573   */\n      add\n        /* \"#utility.yul\":3543:3574   */\n      calldataload\n        /* \"#utility.yul\":3601:3619   */\n      0xffffffffffffffff\n        /* \"#utility.yul\":3593:3599   */\n      dup2\n        /* \"#utility.yul\":3590:3620   */\n      gt\n        /* \"#utility.yul\":3587:3704   */\n      iszero\n      tag_152\n      jumpi\n        /* \"#utility.yul\":3623:3702   */\n      tag_153\n      tag_67\n      jump\t// in\n    tag_153:\n        /* \"#utility.yul\":3587:3704   */\n    tag_152:\n        /* \"#utility.yul\":3728:3791   */\n      tag_154\n        /* \"#utility.yul\":3783:3790   */\n      dup7\n        /* \"#utility.yul\":3774:3780   */\n      dup3\n        /* \"#utility.yul\":3763:3772   */\n      dup8\n        /* \"#utility.yul\":3759:3781   */\n      add\n        /* \"#utility.yul\":3728:3791   */\n      tag_77\n      jump\t// in\n    tag_154:\n        /* \"#utility.yul\":3718:3791   */\n      swap4\n      pop\n        /* \"#utility.yul\":3514:3801   */\n      pop\n        /* \"#utility.yul\":3840:3842   */\n      0x20\n        /* \"#utility.yul\":3866:3919   */\n      tag_155\n        /* \"#utility.yul\":3911:3918   */\n      dup7\n        /* \"#utility.yul\":3902:3908   */\n      dup3\n        /* \"#utility.yul\":3891:3900   */\n      dup8\n        /* \"#utility.yul\":3887:3909   */\n      add\n        /* \"#utility.yul\":3866:3919   */\n      tag_80\n      jump\t// in\n    tag_155:\n        /* \"#utility.yul\":3856:3919   */\n      swap3\n      pop\n        /* \"#utility.yul\":3811:3929   */\n      pop\n        /* \"#utility.yul\":3968:3970   */\n      0x40\n        /* \"#utility.yul\":3994:4044   */\n      tag_156\n        /* \"#utility.yul\":4036:4043   */\n      dup7\n        /* \"#utility.yul\":4027:4033   */\n      dup3\n        /* \"#utility.yul\":4016:4025   */\n      dup8\n        /* \"#utility.yul\":4012:4034   */\n      add\n        /* \"#utility.yul\":3994:4044   */\n      tag_83\n      jump\t// in\n    tag_156:\n        /* \"#utility.yul\":3984:4044   */\n      swap2\n      pop\n        /* \"#utility.yul\":3939:4054   */\n      pop\n        /* \"#utility.yul\":3268:4061   */\n      swap3\n      pop\n      swap3\n      pop\n      swap3\n      jump\t// out\n        /* \"#utility.yul\":4067:4185   */\n    tag_84:\n        /* \"#utility.yul\":4154:4178   */\n      tag_158\n        /* \"#utility.yul\":4172:4177   */\n      dup2\n        /* \"#utility.yul\":4154:4178   */\n      tag_78\n      jump\t// in\n    tag_158:\n        /* \"#utility.yul\":4149:4152   */\n      dup3\n        /* \"#utility.yul\":4142:4179   */\n      mstore\n        /* \"#utility.yul\":4067:4185   */\n      pop\n      pop\n      jump\t// out\n        /* \"#utility.yul\":4191:4413   */\n    tag_18:\n        /* \"#utility.yul\":4284:4288   */\n      0x00\n        /* \"#utility.yul\":4322:4324   */\n      0x20\n        /* \"#utility.yul\":4311:4320   */\n      dup3\n        /* \"#utility.yul\":4307:4325   */\n      add\n        /* \"#utility.yul\":4299:4325   */\n      swap1\n      pop\n        /* \"#utility.yul\":4335:4406   */\n      tag_160\n        /* \"#utility.yul\":4403:4404   */\n      0x00\n        /* \"#utility.yul\":4392:4401   */\n      dup4\n        /* \"#utility.yul\":4388:4405   */\n      add\n        /* \"#utility.yul\":4379:4385   */\n      dup5\n        /* \"#utility.yul\":4335:4406   */\n      tag_84\n      jump\t// in\n    tag_160:\n        /* \"#utility.yul\":4191:4413   */\n      swap3\n      swap2\n      pop\n      pop\n      jump\t// out\n        /* \"#utility.yul\":4419:4518   */\n    tag_85:\n        /* \"#utility.yul\":4471:4477   */\n      0x00\n        /* \"#utility.yul\":4505:4510   */\n      dup2\n        /* \"#utility.yul\":4499:4511   */\n      mload\n        /* \"#utility.yul\":4489:4511   */\n      swap1\n      pop\n        /* \"#utility.yul\":4419:4518   */\n      swap2\n      swap1\n      pop\n      jump\t// out\n        /* \"#utility.yul\":4524:4693   */\n    tag_86:\n        /* \"#utility.yul\":4608:4619   */\n      0x00\n        /* \"#utility.yul\":4642:4648   */\n      dup3\n        /* \"#utility.yul\":4637:4640   */\n      dup3\n        /* \"#utility.yul\":4630:4649   */\n      mstore\n        /* \"#utility.yul\":4682:4686   */\n      0x20\n        /* \"#utility.yul\":4677:4680   */\n      dup3\n        /* \"#utility.yul\":4673:4687   */\n      add\n        /* \"#utility.yul\":4658:4687   */\n      swap1\n      pop\n        /* \"#utility.yul\":4524:4693   */\n      swap3\n      swap2\n      pop\n      pop\n      jump\t// out\n        /* \"#utility.yul\":4699:4838   */\n    tag_87:\n        /* \"#utility.yul\":4788:4794   */\n      dup3\n        /* \"#utility.yul\":4783:4786   */\n      dup2\n        /* \"#utility.yul\":4778:4781   */\n      dup4\n        /* \"#utility.yul\":4772:4795   */\n      mcopy\n        /* \"#utility.yul\":4829:4830   */\n      0x00\n        /* \"#utility.yul\":4820:4826   */\n      dup4\n        /* \"#utility.yul\":4815:4818   */\n      dup4\n        /* \"#utility.yul\":4811:4827   */\n      add\n        /* \"#utility.yul\":4804:4831   */\n      mstore\n        /* \"#utility.yul\":4699:4838   */\n      pop\n      pop\n      pop\n      jump\t// out\n        /* \"#utility.yul\":4844:5221   */\n    tag_88:\n        /* \"#utility.yul\":4932:4935   */\n      0x00\n        /* \"#utility.yul\":4960:4999   */\n      tag_165\n        /* \"#utility.yul\":4993:4998   */\n      dup3\n        /* \"#utility.yul\":4960:4999   */\n      tag_85\n      jump\t// in\n    tag_165:\n        /* \"#utility.yul\":5015:5086   */\n      tag_166\n        /* \"#utility.yul\":5079:5085   */\n      dup2\n        /* \"#utility.yul\":5074:5077   */\n      dup6\n        /* \"#utility.yul\":5015:5086   */\n      tag_86\n      jump\t// in\n    tag_166:\n        /* \"#utility.yul\":5008:5086   */\n      swap4\n      pop\n        /* \"#utility.yul\":5095:5160   */\n      tag_167\n        /* \"#utility.yul\":5153:5159   */\n      dup2\n        /* \"#utility.yul\":5148:5151   */\n      dup6\n        /* \"#utility.yul\":5141:5145   */\n      0x20\n        /* \"#utility.yul\":5134:5139   */\n      dup7\n        /* \"#utility.yul\":5130:5146   */\n      add\n        /* \"#utility.yul\":5095:5160   */\n      tag_87\n      jump\t// in\n    tag_167:\n        /* \"#utility.yul\":5185:5214   */\n      tag_168\n        /* \"#utility.yul\":5207:5213   */\n      dup2\n        /* \"#utility.yul\":5185:5214   */\n      tag_70\n      jump\t// in\n    tag_168:\n        /* \"#utility.yul\":5180:5183   */\n      dup5\n        /* \"#utility.yul\":5176:5215   */\n      add\n        /* \"#utility.yul\":5169:5215   */\n      swap2\n      pop\n        /* \"#utility.yul\":4936:5221   */\n      pop\n        /* \"#utility.yul\":4844:5221   */\n      swap3\n      swap2\n      pop\n      pop\n      jump\t// out\n        /* \"#utility.yul\":5227:5336   */\n    tag_89:\n        /* \"#utility.yul\":5308:5329   */\n      tag_170\n        /* \"#utility.yul\":5323:5328   */\n      dup2\n        /* \"#utility.yul\":5308:5329   */\n      tag_81\n      jump\t// in\n    tag_170:\n        /* \"#utility.yul\":5303:5306   */\n      dup3\n        /* \"#utility.yul\":5296:5330   */\n      mstore\n        /* \"#utility.yul\":5227:5336   */\n      pop\n      pop\n      jump\t// out\n        /* \"#utility.yul\":5342:5863   */\n    tag_22:\n        /* \"#utility.yul\":5505:5509   */\n      0x00\n        /* \"#utility.yul\":5543:5545   */\n      0x60\n        /* \"#utility.yul\":5532:5541   */\n      dup3\n        /* \"#utility.yul\":5528:5546   */\n      add\n        /* \"#utility.yul\":5520:5546   */\n      swap1\n      pop\n        /* \"#utility.yul\":5556:5627   */\n      tag_172\n        /* \"#utility.yul\":5624:5625   */\n      0x00\n        /* \"#utility.yul\":5613:5622   */\n      dup4\n        /* \"#utility.yul\":5609:5626   */\n      add\n        /* \"#utility.yul\":5600:5606   */\n      dup7\n        /* \"#utility.yul\":5556:5627   */\n      tag_84\n      jump\t// in\n    tag_172:\n        /* \"#utility.yul\":5674:5683   */\n      dup2\n        /* \"#utility.yul\":5668:5672   */\n      dup2\n        /* \"#utility.yul\":5664:5684   */\n      sub\n        /* \"#utility.yul\":5659:5661   */\n      0x20\n        /* \"#utility.yul\":5648:5657   */\n      dup4\n        /* \"#utility.yul\":5644:5662   */\n      add\n        /* \"#utility.yul\":5637:5685   */\n      mstore\n        /* \"#utility.yul\":5702:5780   */\n      tag_173\n        /* \"#utility.yul\":5775:5779   */\n      dup2\n        /* \"#utility.yul\":5766:5772   */\n      dup6\n        /* \"#utility.yul\":5702:5780   */\n      tag_88\n      jump\t// in\n    tag_173:\n        /* \"#utility.yul\":5694:5780   */\n      swap1\n      pop\n        /* \"#utility.yul\":5790:5856   */\n      tag_174\n        /* \"#utility.yul\":5852:5854   */\n      0x40\n        /* \"#utility.yul\":5841:5850   */\n      dup4\n        /* \"#utility.yul\":5837:5855   */\n      add\n        /* \"#utility.yul\":5828:5834   */\n      dup5\n        /* \"#utility.yul\":5790:5856   */\n      tag_89\n      jump\t// in\n    tag_174:\n        /* \"#utility.yul\":5342:5863   */\n      swap5\n      swap4\n      pop\n      pop\n      pop\n      pop\n      jump\t// out\n        /* \"#utility.yul\":5869:6198   */\n    tag_28:\n        /* \"#utility.yul\":5928:5934   */\n      0x00\n        /* \"#utility.yul\":5977:5979   */\n      0x20\n        /* \"#utility.yul\":5965:5974   */\n      dup3\n        /* \"#utility.yul\":5956:5963   */\n      dup5\n        /* \"#utility.yul\":5952:5975   */\n      sub\n        /* \"#utility.yul\":5948:5980   */\n      slt\n        /* \"#utility.yul\":5945:6064   */\n      iszero\n      tag_176\n      jumpi\n        /* \"#utility.yul\":5983:6062   */\n      tag_177\n      tag_66\n      jump\t// in\n    tag_177:\n        /* \"#utility.yul\":5945:6064   */\n    tag_176:\n        /* \"#utility.yul\":6103:6104   */\n      0x00\n        /* \"#utility.yul\":6128:6181   */\n      tag_178\n        /* \"#utility.yul\":6173:6180   */\n      dup5\n        /* \"#utility.yul\":6164:6170   */\n      dup3\n        /* \"#utility.yul\":6153:6162   */\n      dup6\n        /* \"#utility.yul\":6149:6171   */\n      add\n        /* \"#utility.yul\":6128:6181   */\n      tag_80\n      jump\t// in\n    tag_178:\n        /* \"#utility.yul\":6118:6181   */\n      swap2\n      pop\n        /* \"#utility.yul\":6074:6191   */\n      pop\n        /* \"#utility.yul\":5869:6198   */\n      swap3\n      swap2\n      pop\n      pop\n      jump\t// out\n        /* \"#utility.yul\":6204:6384   */\n    tag_90:\n        /* \"#utility.yul\":6252:6329   */\n      0x4e487b7100000000000000000000000000000000000000000000000000000000\n        /* \"#utility.yul\":6249:6250   */\n      0x00\n        /* \"#utility.yul\":6242:6330   */\n      mstore\n        /* \"#utility.yul\":6349:6353   */\n      0x22\n        /* \"#utility.yul\":6346:6347   */\n      0x04\n        /* \"#utility.yul\":6339:6354   */\n      mstore\n        /* \"#utility.yul\":6373:6377   */\n      0x24\n        /* \"#utility.yul\":6370:6371   */\n      0x00\n        /* \"#utility.yul\":6363:6378   */\n      revert\n        /* \"#utility.yul\":6390:6710   */\n    tag_46:\n        /* \"#utility.yul\":6434:6440   */\n      0x00\n        /* \"#utility.yul\":6471:6472   */\n      0x02\n        /* \"#utility.yul\":6465:6469   */\n      dup3\n        /* \"#utility.yul\":6461:6473   */\n      div\n        /* \"#utility.yul\":6451:6473   */\n      swap1\n      pop\n        /* \"#utility.yul\":6518:6519   */\n      0x01\n        /* \"#utility.yul\":6512:6516   */\n      dup3\n        /* \"#utility.yul\":6508:6520   */\n      and\n        /* \"#utility.yul\":6539:6557   */\n      dup1\n        /* \"#utility.yul\":6529:6610   */\n      tag_181\n      jumpi\n        /* \"#utility.yul\":6595:6599   */\n      0x7f\n        /* \"#utility.yul\":6587:6593   */\n      dup3\n        /* \"#utility.yul\":6583:6600   */\n      and\n        /* \"#utility.yul\":6573:6600   */\n      swap2\n      pop\n        /* \"#utility.yul\":6529:6610   */\n    tag_181:\n        /* \"#utility.yul\":6657:6659   */\n      0x20\n        /* \"#utility.yul\":6649:6655   */\n      dup3\n        /* \"#utility.yul\":6646:6660   */\n      lt\n        /* \"#utility.yul\":6626:6644   */\n      dup2\n        /* \"#utility.yul\":6623:6661   */\n      sub\n        /* \"#utility.yul\":6620:6704   */\n      tag_182\n      jumpi\n        /* \"#utility.yul\":6676:6694   */\n      tag_183\n      tag_90\n      jump\t// in\n    tag_183:\n        /* \"#utility.yul\":6620:6704   */\n    tag_182:\n        /* \"#utility.yul\":6441:6710   */\n      pop\n        /* \"#utility.yul\":6390:6710   */\n      swap2\n      swap1\n      pop\n      jump\t// out\n        /* \"#utility.yul\":6716:6857   */\n    tag_91:\n        /* \"#utility.yul\":6765:6769   */\n      0x00\n        /* \"#utility.yul\":6788:6791   */\n      dup2\n        /* \"#utility.yul\":6780:6791   */\n      swap1\n      pop\n        /* \"#utility.yul\":6811:6814   */\n      dup2\n        /* \"#utility.yul\":6808:6809   */\n      0x00\n        /* \"#utility.yul\":6801:6815   */\n      mstore\n        /* \"#utility.yul\":6845:6849   */\n      0x20\n        /* \"#utility.yul\":6842:6843   */\n      0x00\n        /* \"#utility.yul\":6832:6850   */\n      keccak256\n        /* \"#utility.yul\":6824:6850   */\n      swap1\n      pop\n        /* \"#utility.yul\":6716:6857   */\n      swap2\n      swap1\n      pop\n      jump\t// out\n        /* \"#utility.yul\":6863:6956   */\n    tag_92:\n        /* \"#utility.yul\":6900:6906   */\n      0x00\n        /* \"#utility.yul\":6947:6949   */\n      0x20\n        /* \"#utility.yul\":6942:6944   */\n      0x1f\n        /* \"#utility.yul\":6935:6940   */\n      dup4\n        /* \"#utility.yul\":6931:6945   */\n      add\n        /* \"#utility.yul\":6927:6950   */\n      div\n        /* \"#utility.yul\":6917:6950   */\n      swap1\n      pop\n        /* \"#utility.yul\":6863:6956   */\n      swap2\n      swap1\n      pop\n      jump\t// out\n        /* \"#utility.yul\":6962:7069   */\n    tag_93:\n        /* \"#utility.yul\":7006:7014   */\n      0x00\n        /* \"#utility.yul\":7056:7061   */\n      dup3\n        /* \"#utility.yul\":7050:7054   */\n      dup3\n        /* \"#utility.yul\":7046:7062   */\n      shl\n        /* \"#utility.yul\":7025:7062   */\n      swap1\n      pop\n        /* \"#utility.yul\":6962:7069   */\n      swap3\n      swap2\n      pop\n      pop\n      jump\t// out\n        /* \"#utility.yul\":7075:7468   */\n    tag_94:\n        /* \"#utility.yul\":7144:7150   */\n      0x00\n        /* \"#utility.yul\":7194:7195   */\n      0x08\n        /* \"#utility.yul\":7182:7192   */\n      dup4\n        /* \"#utility.yul\":7178:7196   */\n      mul\n        /* \"#utility.yul\":7217:7314   */\n      tag_188\n        /* \"#utility.yul\":7247:7313   */\n      0xffffffffffffffffffffffffffffffffffffffffffffffffffffffffffffffff\n        /* \"#utility.yul\":7236:7245   */\n      dup3\n        /* \"#utility.yul\":7217:7314   */\n      tag_93\n      jump\t// in\n    tag_188:\n        /* \"#utility.yul\":7335:7374   */\n      tag_189\n        /* \"#utility.yul\":7365:7373   */\n      dup7\n        /* \"#utility.yul\":7354:7363   */\n      dup4\n        /* \"#utility.yul\":7335:7374   */\n      tag_93\n      jump\t// in\n    tag_189:\n        /* \"#utility.yul\":7323:7374   */\n      swap6\n      pop\n        /* \"#utility.yul\":7407:7411   */\n      dup1\n        /* \"#utility.yul\":7403:7412   */\n      not\n        /* \"#utility.yul\":7396:7401   */\n      dup5\n        /* \"#utility.yul\":7392:7413   */\n      and\n        /* \"#utility.yul\":7383:7413   */\n      swap4\n      pop\n        /* \"#utility.yul\":7456:7460   */\n      dup1\n        /* \"#utility.yul\":7446:7454   */\n      dup7\n        /* \"#utility.yul\":7442:7461   */\n      and\n        /* \"#utility.yul\":7435:7440   */\n      dup5\n        /* \"#utility.yul\":7432:7462   */\n      or\n        /* \"#utility.yul\":7422:7462   */\n      swap3\n      pop\n        /* \"#utility.yul\":7151:7468   */\n      pop\n      pop\n        /* \"#utility.yul\":7075:7468   */\n      swap4\n      swap3\n      pop\n      pop\n      pop\n      jump\t// out\n        /* \"#utility.yul\":7474:7534   */\n    tag_95:\n        /* \"#utility.yul\":7502:7505   */\n      0x00\n        /* \"#utility.yul\":7523:7528   */\n      dup2\n        /* \"#utility.yul\":7516:7528   */\n      swap1\n      pop\n        /* \"#utility.yul\":7474:7534   */\n      swap2\n      swap1\n      pop\n      jump\t// out\n        /* \"#utility.yul\":7540:7682   */\n    tag_96:\n        /* \"#utility.yul\":7590:7599   */\n      0x00\n        /* \"#utility.yul\":7623:7676   */\n      tag_192\n        /* \"#utility.yul\":7641:7675   */\n      tag_193\n        /* \"#utility.yul\":7650:7674   */\n      tag_194\n        /* \"#utility.yul\":7668:7673   */\n      dup5\n        /* \"#utility.yul\":7650:7674   */\n      tag_78\n      jump\t// in\n    tag_194:\n        /* \"#utility.yul\":7641:7675   */\n      tag_95\n      jump\t// in\n    tag_193:\n        /* \"#utility.yul\":7623:7676   */\n      tag_78\n      jump\t// in\n    tag_192:\n        /* \"#utility.yul\":7610:7676   */\n      swap1\n      pop\n        /* \"#utility.yul\":7540:7682   */\n      swap2\n      swap1\n      pop\n      jump\t// out\n        /* \"#utility.yul\":7688:7763   */\n    tag_97:\n        /* \"#utility.yul\":7731:7734   */\n      0x00\n        /* \"#utility.yul\":7752:7757   */\n      dup2\n        /* \"#utility.yul\":7745:7757   */\n      swap1\n      pop\n        /* \"#utility.yul\":7688:7763   */\n      swap2\n      swap1\n      pop\n      jump\t// out\n        /* \"#utility.yul\":7769:8038   */\n    tag_98:\n        /* \"#utility.yul\":7879:7918   */\n      tag_197\n        /* \"#utility.yul\":7910:7917   */\n      dup4\n        /* \"#utility.yul\":7879:7918   */\n      tag_96\n      jump\t// in\n    tag_197:\n        /* \"#utility.yul\":7940:8031   */\n      tag_198\n        /* \"#utility.yul\":7989:8030   */\n      tag_199\n        /* \"#utility.yul\":8013:8029   */\n      dup3\n        /* \"#utility.yul\":7989:8030   */\n      tag_97\n      jump\t// in\n    tag_199:\n        /* \"#utility.yul\":7981:7987   */\n      dup5\n        /* \"#utility.yul\":7974:7978   */\n      dup5\n        /* \"#utility.yul\":7968:7979   */\n      sload\n        /* \"#utility.yul\":7940:8031   */\n      tag_94\n      jump\t// in\n    tag_198:\n        /* \"#utility.yul\":7934:7938   */\n      dup3\n        /* \"#utility.yul\":7927:8032   */\n      sstore\n        /* \"#utility.yul\":7845:8038   */\n      pop\n        /* \"#utility.yul\":7769:8038   */\n      pop\n      pop\n      pop\n      jump\t// out\n        /* \"#utility.yul\":8044:8117   */\n    tag_99:\n        /* \"#utility.yul\":8089:8092   */\n      0x00\n        /* \"#utility.yul\":8044:8117   */\n      swap1\n      jump\t// out\n        /* \"#utility.yul\":8123:8312   */\n    tag_100:\n        /* \"#utility.yul\":8200:8232   */\n      tag_202\n      tag_99\n      jump\t// in\n    tag_202:\n        /* \"#utility.yul\":8241:8306   */\n      tag_203\n        /* \"#utility.yul\":8299:8305   */\n      dup2\n        /* \"#utility.yul\":8291:8297   */\n      dup5\n        /* \"#utility.yul\":8285:8289   */\n      dup5\n        /* \"#utility.yul\":8241:8306   */\n      tag_98\n      jump\t// in\n    tag_203:\n        /* \"#utility.yul\":8176:8312   */\n      pop\n        /* \"#utility.yul\":8123:8312   */\n      pop\n      pop\n      jump\t// out\n        /* \"#utility.yul\":8318:8504   */\n    tag_101:\n        /* \"#utility.yul\":8378:8498   */\n    tag_205:\n        /* \"#utility.yul\":8395:8398   */\n      dup2\n        /* \"#utility.yul\":8388:8393   */\n      dup2\n        /* \"#utility.yul\":8385:8399   */\n      lt\n        /* \"#utility.yul\":8378:8498   */\n      iszero\n      tag_207\n      jumpi\n        /* \"#utility.yul\":8449:8488   */\n      tag_208\n        /* \"#utility.yul\":8486:8487   */\n      0x00\n        /* \"#utility.yul\":8479:8484   */\n      dup3\n        /* \"#utility.yul\":8449:8488   */\n      tag_100\n      jump\t// in\n    tag_208:\n        /* \"#utility.yul\":8422:8423   */\n      0x01\n        /* \"#utility.yul\":8415:8420   */\n      dup2\n        /* \"#utility.yul\":8411:8424   */\n      add\n        /* \"#utility.yul\":8402:8424   */\n      swap1\n      pop\n        /* \"#utility.yul\":8378:8498   */\n      jump(tag_205)\n    tag_207:\n        /* \"#utility.yul\":8318:8504   */\n      pop\n      pop\n      jump\t// out\n        /* \"#utility.yul\":8510:9053   */\n    tag_102:\n        /* \"#utility.yul\":8611:8613   */\n      0x1f\n        /* \"#utility.yul\":8606:8609   */\n      dup3\n        /* \"#utility.yul\":8603:8614   */\n      gt\n        /* \"#utility.yul\":8600:9046   */\n      iszero\n      tag_210\n      jumpi\n        /* \"#utility.yul\":8645:8683   */\n      tag_211\n        /* \"#utility.yul\":8677:8682   */\n      dup2\n        /* \"#utility.yul\":8645:8683   */\n      tag_91\n      jump\t// in\n    tag_211:\n        /* \"#utility.yul\":8729:8758   */\n      tag_212\n        /* \"#utility.yul\":8747:8757   */\n      dup5\n        /* \"#utility.yul\":8729:8758   */\n      tag_92\n      jump\t// in\n    tag_212:\n        /* \"#utility.yul\":8719:8727   */\n      dup2\n        /* \"#utility.yul\":8715:8759   */\n      add\n        /* \"#utility.yul\":8912:8914   */\n      0x20\n        /* \"#utility.yul\":8900:8910   */\n      dup6\n        /* \"#utility.yul\":8897:8915   */\n      lt\n        /* \"#utility.yul\":8894:8943   */\n      iszero\n      tag_213\n      jumpi\n        /* \"#utility.yul\":8933:8941   */\n      dup2\n        /* \"#utility.yul\":8918:8941   */\n      swap1\n      pop\n        /* \"#utility.yul\":8894:8943   */\n    tag_213:\n        /* \"#utility.yul\":8956:9036   */\n      tag_214\n        /* \"#utility.yul\":9012:9034   */\n      tag_215\n        /* \"#utility.yul\":9030:9033   */\n      dup6\n        /* \"#utility.yul\":9012:9034   */\n      tag_92\n      jump\t// in\n    tag_215:\n        /* \"#utility.yul\":9002:9010   */\n      dup4\n        /* \"#utility.yul\":8998:9035   */\n      add\n        /* \"#utility.yul\":8985:8996   */\n      dup3\n        /* \"#utility.yul\":8956:9036   */\n      tag_101\n      jump\t// in\n    tag_214:\n        /* \"#utility.yul\":8615:9046   */\n      pop\n      pop\n        /* \"#utility.yul\":8600:9046   */\n    tag_210:\n        /* \"#utility.yul\":8510:9053   */\n      pop\n      pop\n      pop\n      jump\t// out\n        /* \"#utility.yul\":9059:9176   */\n    tag_103:\n        /* \"#utility.yul\":9113:9121   */\n      0x00\n        /* \"#utility.yul\":9163:9168   */\n      dup3\n        /* \"#utility.yul\":9157:9161   */\n      dup3\n        /* \"#utility.yul\":9153:9169   */\n      shr\n        /* \"#utility.yul\":9132:9169   */\n      swap1\n      pop\n        /* \"#utility.yul\":9059:9176   */\n      swap3\n      swap2\n      pop\n      pop\n      jump\t// out\n        /* \"#utility.yul\":9182:9351   */\n    tag_104:\n        /* \"#utility.yul\":9226:9232   */\n      0x00\n        /* \"#utility.yul\":9259:9310   */\n      tag_218\n        /* \"#utility.yul\":9307:9308   */\n      0x00\n        /* \"#utility.yul\":9303:9309   */\n      not\n        /* \"#utility.yul\":9295:9300   */\n      dup5\n        /* \"#utility.yul\":9292:9293   */\n      0x08\n        /* \"#utility.yul\":9288:9301   */\n      mul\n        /* \"#utility.yul\":9259:9310   */\n      tag_103\n      jump\t// in\n    tag_218:\n        /* \"#utility.yul\":9255:9311   */\n      not\n        /* \"#utility.yul\":9340:9344   */\n      dup1\n        /* \"#utility.yul\":9334:9338   */\n      dup4\n        /* \"#utility.yul\":9330:9345   */\n      and\n        /* \"#utility.yul\":9320:9345   */\n      swap2\n      pop\n        /* \"#utility.yul\":9233:9351   */\n      pop\n        /* \"#utility.yul\":9182:9351   */\n      swap3\n      swap2\n      pop\n      pop\n      jump\t// out\n        /* \"#utility.yul\":9356:9651   */\n    tag_105:\n        /* \"#utility.yul\":9432:9436   */\n      0x00\n        /* \"#utility.yul\":9578:9607   */\n      tag_220\n        /* \"#utility.yul\":9603:9606   */\n      dup4\n        /* \"#utility.yul\":9597:9601   */\n      dup4\n        /* \"#utility.yul\":9578:9607   */\n      tag_104\n      jump\t// in\n    tag_220:\n        /* \"#utility.yul\":9570:9607   */\n      swap2\n      pop\n        /* \"#utility.yul\":9640:9643   */\n      dup3\n        /* \"#utility.yul\":9637:9638   */\n      0x02\n        /* \"#utility.yul\":9633:9644   */\n      mul\n        /* \"#utility.yul\":9627:9631   */\n      dup3\n        /* \"#utility.yul\":9624:9645   */\n      or\n        /* \"#utility.yul\":9616:9645   */\n      swap1\n      pop\n        /* \"#utility.yul\":9356:9651   */\n      swap3\n      swap2\n      pop\n      pop\n      jump\t// out\n        /* \"#utility.yul\":9656:11051   */\n    tag_41:\n        /* \"#utility.yul\":9773:9810   */\n      tag_222\n        /* \"#utility.yul\":9806:9809   */\n      dup3\n        /* \"#utility.yul\":9773:9810   */\n      tag_85\n      jump\t// in\n    tag_222:\n        /* \"#utility.yul\":9875:9893   */\n      0xffffffffffffffff\n        /* \"#utility.yul\":9867:9873   */\n      dup2\n        /* \"#utility.yul\":9864:9894   */\n      gt\n        /* \"#utility.yul\":9861:9917   */\n      iszero\n      tag_223\n      jumpi\n        /* \"#utility.yul\":9897:9915   */\n      tag_224\n      tag_71\n      jump\t// in\n    tag_224:\n        /* \"#utility.yul\":9861:9917   */\n    tag_223:\n        /* \"#utility.yul\":9941:9979   */\n      tag_225\n        /* \"#utility.yul\":9973:9977   */\n      dup3\n        /* \"#utility.yul\":9967:9978   */\n      sload\n        /* \"#utility.yul\":9941:9979   */\n      tag_46\n      jump\t// in\n    tag_225:\n        /* \"#utility.yul\":10026:10093   */\n      tag_226\n        /* \"#utility.yul\":10086:10092   */\n      dup3\n        /* \"#utility.yul\":10078:10084   */\n      dup3\n        /* \"#utility.yul\":10072:10076   */\n      dup6\n        /* \"#utility.yul\":10026:10093   */\n      tag_102\n      jump\t// in\n    tag_226:\n        /* \"#utility.yul\":10120:10121   */\n      0x00\n        /* \"#utility.yul\":10144:10148   */\n      0x20\n        /* \"#utility.yul\":10131:10148   */\n      swap1\n      pop\n        /* \"#utility.yul\":10176:10178   */\n      0x1f\n        /* \"#utility.yul\":10168:10174   */\n      dup4\n        /* \"#utility.yul\":10165:10179   */\n      gt\n        /* \"#utility.yul\":10193:10194   */\n      0x01\n        /* \"#utility.yul\":10188:10806   */\n      dup2\n      eq\n      tag_228\n      jumpi\n        /* \"#utility.yul\":10850:10851   */\n      0x00\n        /* \"#utility.yul\":10867:10873   */\n      dup5\n        /* \"#utility.yul\":10864:10941   */\n      iszero\n      tag_229\n      jumpi\n        /* \"#utility.yul\":10916:10925   */\n      dup3\n        /* \"#utility.yul\":10911:10914   */\n      dup8\n        /* \"#utility.yul\":10907:10926   */\n      add\n        /* \"#utility.yul\":10901:10927   */\n      mload\n        /* \"#utility.yul\":10892:10927   */\n      swap1\n      pop\n        /* \"#utility.yul\":10864:10941   */\n    tag_229:\n        /* \"#utility.yul\":10967:11034   */\n      tag_230\n        /* \"#utility.yul\":11027:11033   */\n      dup6\n        /* \"#utility.yul\":11020:11025   */\n      dup3\n        /* \"#utility.yul\":10967:11034   */\n      tag_105\n      jump\t// in\n    tag_230:\n        /* \"#utility.yul\":10961:10965   */\n      dup7\n        /* \"#utility.yul\":10954:11035   */\n      sstore\n        /* \"#utility.yul\":10823:11045   */\n      pop\n        /* \"#utility.yul\":10158:11045   */\n      jump(tag_227)\n        /* \"#utility.yul\":10188:10806   */\n    tag_228:\n        /* \"#utility.yul\":10240:10244   */\n      0x1f\n        /* \"#utility.yul\":10236:10245   */\n      not\n        /* \"#utility.yul\":10228:10234   */\n      dup5\n        /* \"#utility.yul\":10224:10246   */\n      and\n        /* \"#utility.yul\":10274:10311   */\n      tag_231\n        /* \"#utility.yul\":10306:10310   */\n      dup7\n        /* \"#utility.yul\":10274:10311   */\n      tag_91\n      jump\t// in\n    tag_231:\n        /* \"#utility.yul\":10333:10334   */\n      0x00\n        /* \"#utility.yul\":10347:10555   */\n    tag_232:\n        /* \"#utility.yul\":10361:10368   */\n      dup3\n        /* \"#utility.yul\":10358:10359   */\n      dup2\n        /* \"#utility.yul\":10355:10369   */\n      lt\n        /* \"#utility.yul\":10347:10555   */\n      iszero\n      tag_234\n      jumpi\n        /* \"#utility.yul\":10440:10449   */\n      dup5\n        /* \"#utility.yul\":10435:10438   */\n      dup10\n        /* \"#utility.yul\":10431:10450   */\n      add\n        /* \"#utility.yul\":10425:10451   */\n      mload\n        /* \"#utility.yul\":10417:10423   */\n      dup3\n        /* \"#utility.yul\":10410:10452   */\n      sstore\n        /* \"#utility.yul\":10491:10492   */\n      0x01\n        /* \"#utility.yul\":10483:10489   */\n      dup3\n        /* \"#utility.yul\":10479:10493   */\n      add\n        /* \"#utility.yul\":10469:10493   */\n      swap2\n      pop\n        /* \"#utility.yul\":10538:10540   */\n      0x20\n        /* \"#utility.yul\":10527:10536   */\n      dup6\n        /* \"#utility.yul\":10523:10541   */\n      add\n        /* \"#utility.yul\":10510:10541   */\n      swap5\n      pop\n        /* \"#utility.yul\":10384:10388   */\n      0x20\n        /* \"#utility.yul\":10381:10382   */\n      dup2\n        /* \"#utility.yul\":10377:10389   */\n      add\n        /* \"#utility.yul\":10372:10389   */\n      swap1\n      pop\n        /* \"#utility.yul\":10347:10555   */\n      jump(tag_232)\n    tag_234:\n        /* \"#utility.yul\":10583:10589   */\n      dup7\n        /* \"#utility.yul\":10574:10581   */\n      dup4\n        /* \"#utility.yul\":10571:10590   */\n      lt\n        /* \"#utility.yul\":10568:10747   */\n      iszero\n      tag_235\n      jumpi\n        /* \"#utility.yul\":10641:10650   */\n      dup5\n        /* \"#utility.yul\":10636:10639   */\n      dup10\n        /* \"#utility.yul\":10632:10651   */\n      add\n        /* \"#utility.yul\":10626:10652   */\n      mload\n        /* \"#utility.yul\":10684:10732   */\n      tag_236\n        /* \"#utility.yul\":10726:10730   */\n      0x1f\n        /* \"#utility.yul\":10718:10724   */\n      dup10\n        /* \"#utility.yul\":10714:10731   */\n      and\n        /* \"#utility.yul\":10703:10712   */\n      dup3\n        /* \"#utility.yul\":10684:10732   */\n      tag_104\n      jump\t// in\n    tag_236:\n        /* \"#utility.yul\":10676:10682   */\n      dup4\n        /* \"#utility.yul\":10669:10733   */\n      sstore\n        /* \"#utility.yul\":10591:10747   */\n      pop\n        /* \"#utility.yul\":10568:10747   */\n    tag_235:\n        /* \"#utility.yul\":10793:10794   */\n      0x01\n        /* \"#utility.yul\":10789:10790   */\n      0x02\n        /* \"#utility.yul\":10781:10787   */\n      dup9\n        /* \"#utility.yul\":10777:10791   */\n      mul\n        /* \"#utility.yul\":10773:10795   */\n      add\n        /* \"#utility.yul\":10767:10771   */\n      dup9\n        /* \"#utility.yul\":10760:10796   */\n      sstore\n        /* \"#utility.yul\":10195:10806   */\n      pop\n      pop\n      pop\n        /* \"#utility.yul\":10158:11045   */\n    tag_227:\n      pop\n        /* \"#utility.yul\":9748:11051   */\n      pop\n      pop\n      pop\n        /* \"#utility.yul\":9656:11051   */\n      pop\n      pop\n      jump\t// out\n        /* \"#utility.yul\":11057:11237   */\n    tag_106:\n        /* \"#utility.yul\":11105:11182   */\n      0x4e487b7100000000000000000000000000000000000000000000000000000000\n        /* \"#utility.yul\":11102:11103   */\n      0x00\n        /* \"#utility.yul\":11095:11183   */\n      mstore\n        /* \"#utility.yul\":11202:11206   */\n      0x11\n        /* \"#utility.yul\":11199:11200   */\n      0x04\n        /* \"#utility.yul\":11192:11207   */\n      mstore\n        /* \"#utility.yul\":11226:11230   */\n      0x24\n        /* \"#utility.yul\":11223:11224   */\n      0x00\n        /* \"#utility.yul\":11216:11231   */\n      revert\n        /* \"#utility.yul\":11243:11434   */\n    tag_54:\n        /* \"#utility.yul\":11283:11286   */\n      0x00\n        /* \"#utility.yul\":11302:11322   */\n      tag_239\n        /* \"#utility.yul\":11320:11321   */\n      dup3\n        /* \"#utility.yul\":11302:11322   */\n      tag_78\n      jump\t// in\n    tag_239:\n        /* \"#utility.yul\":11297:11322   */\n      swap2\n      pop\n        /* \"#utility.yul\":11336:11356   */\n      tag_240\n        /* \"#utility.yul\":11354:11355   */\n      dup4\n        /* \"#utility.yul\":11336:11356   */\n      tag_78\n      jump\t// in\n    tag_240:\n        /* \"#utility.yul\":11331:11356   */\n      swap3\n      pop\n        /* \"#utility.yul\":11379:11380   */\n      dup3\n        /* \"#utility.yul\":11376:11377   */\n      dup3\n        /* \"#utility.yul\":11372:11381   */\n      add\n        /* \"#utility.yul\":11365:11381   */\n      swap1\n      pop\n        /* \"#utility.yul\":11400:11403   */\n      dup1\n        /* \"#utility.yul\":11397:11398   */\n      dup3\n        /* \"#utility.yul\":11394:11404   */\n      gt\n        /* \"#utility.yul\":11391:11427   */\n      iszero\n      tag_241\n      jumpi\n        /* \"#utility.yul\":11407:11425   */\n      tag_242\n      tag_106\n      jump\t// in\n    tag_242:\n        /* \"#utility.yul\":11391:11427   */\n    tag_241:\n        /* \"#utility.yul\":11243:11434   */\n      swap3\n      swap2\n      pop\n      pop\n      jump\t// out\n\n    auxdata: 0xa26469706673582212200d0374c41e0c3344cf4a16bc12943e854af845352775eee3e22e9e148509643564736f6c634300081a0033\n}\n",
				"bytecode": {
					"linkReferences": {},
					"object": "608060405260015f806101000a81548160ff021916908315150217905550607b6001556040518060400160405280600581526020017f68617272790000000000000000000000000000000000000000000000000000008152506002908161006691906103e3565b507ffffffffffffffffffffffffffffffffffffffffffffffffffffffffffffffe0c60035573c60d2167b348708875a1f276484167ebc62e7b5260045f6101000a81548173ffffffffffffffffffffffffffffffffffffffff021916908373ffffffffffffffffffffffffffffffffffffffff1602179055507f68617272790000000000000000000000000000000000000000000000000000006005556040518060600160405280603481526020016040518060400160405280600681526020017f416461727368000000000000000000000000000000000000000000000000000081525081526020016001151581525060075f820151815f0155602082015181600101908161017691906103e3565b506040820151816002015f6101000a81548160ff02191690831515021790555050503480156101a3575f80fd5b506104b2565b5f81519050919050565b7f4e487b71000000000000000000000000000000000000000000000000000000005f52604160045260245ffd5b7f4e487b71000000000000000000000000000000000000000000000000000000005f52602260045260245ffd5b5f600282049050600182168061022457607f821691505b602082108103610237576102366101e0565b5b50919050565b5f819050815f5260205f209050919050565b5f6020601f8301049050919050565b5f82821b905092915050565b5f600883026102997fffffffffffffffffffffffffffffffffffffffffffffffffffffffffffffffff8261025e565b6102a3868361025e565b95508019841693508086168417925050509392505050565b5f819050919050565b5f819050919050565b5f6102e76102e26102dd846102bb565b6102c4565b6102bb565b9050919050565b5f819050919050565b610300836102cd565b61031461030c826102ee565b84845461026a565b825550505050565b5f90565b61032861031c565b6103338184846102f7565b505050565b5b818110156103565761034b5f82610320565b600181019050610339565b5050565b601f82111561039b5761036c8161023d565b6103758461024f565b81016020851015610384578190505b6103986103908561024f565b830182610338565b50505b505050565b5f82821c905092915050565b5f6103bb5f19846008026103a0565b1980831691505092915050565b5f6103d383836103ac565b9150826002028217905092915050565b6103ec826101a9565b67ffffffffffffffff811115610405576104046101b3565b5b61040f825461020d565b61041a82828561035a565b5f60209050601f83116001811461044b575f8415610439578287015190505b61044385826103c8565b8655506104aa565b601f1984166104598661023d565b5f5b828110156104805784890151825560018201915060208501945060208101905061045b565b8683101561049d5784890151610499601f8916826103ac565b8355505b6001600288020188555050505b505050505050565b610aca806104bf5f395ff3fe608060405234801561000f575f80fd5b506004361061007b575f3560e01c80634f2be91f116100595780634f2be91f146100d95780634f685fc9146100f7578063ab3ee91114610113578063f304146e146101435761007b565b8063032ce9aa1461007f5780632e64cec11461009b57806346cb59c2146100b9575b5f80fd5b61009960048036038101906100949190610601565b610175565b005b6100a3610287565b6040516100b0919061067c565b60405180910390f35b6100c1610290565b6040516100d093929190610704565b60405180910390f35b6100e1610339565b6040516100ee919061067c565b60405180910390f35b610111600480360381019061010c9190610740565b610341565b005b61012d60048036038101906101289190610740565b61036c565b60405161013a919061067c565b60405180910390f35b61015d60048036038101906101589190610740565b610385565b60405161016c93929190610704565b60405180910390f35b600a6040518060600160405280848152602001858152602001831515815250908060018154018082558091505060019003905f5260205f2090600302015f909190919091505f820151815f015560208201518160010190816101d79190610965565b506040820151816002015f6101000a81548160ff02191690831515021790555050505f60405180606001604052808481526020018581526020018315158152509050600a81908060018154018082558091505060019003905f5260205f2090600302015f909190919091505f820151815f0155602082015181600101908161025f9190610965565b506040820151816002015f6101000a81548160ff021916908315150217905550505050505050565b5f600154905090565b6007805f0154908060010180546102a690610798565b80601f01602080910402602001604051908101604052809291908181526020018280546102d290610798565b801561031d5780601f106102f45761010080835404028352916020019161031d565b820191905f5260205f20905b81548152906001019060200180831161030057829003601f168201915b505050505090806002015f9054906101000a900460ff16905083565b5f6033905090565b806001819055506001805f8282546103599190610a61565b92505081905550610368610287565b5050565b600b816004811061037b575f80fd5b015f915090505481565b600a8181548110610394575f80fd5b905f5260205f2090600302015f91509050805f0154908060010180546103b990610798565b80601f01602080910402602001604051908101604052809291908181526020018280546103e590610798565b80156104305780601f1061040757610100808354040283529160200191610430565b820191905f5260205f20905b81548152906001019060200180831161041357829003601f168201915b505050505090806002015f9054906101000a900460ff16905083565b5f604051905090565b5f80fd5b5f80fd5b5f80fd5b5f80fd5b5f601f19601f8301169050919050565b7f4e487b71000000000000000000000000000000000000000000000000000000005f52604160045260245ffd5b6104ab82610465565b810181811067ffffffffffffffff821117156104ca576104c9610475565b5b80604052505050565b5f6104dc61044c565b90506104e882826104a2565b919050565b5f67ffffffffffffffff82111561050757610506610475565b5b61051082610465565b9050602081019050919050565b828183375f83830152505050565b5f61053d610538846104ed565b6104d3565b90508281526020810184848401111561055957610558610461565b5b61056484828561051d565b509392505050565b5f82601f8301126105805761057f61045d565b5b813561059084826020860161052b565b91505092915050565b5f819050919050565b6105ab81610599565b81146105b5575f80fd5b50565b5f813590506105c6816105a2565b92915050565b5f8115159050919050565b6105e0816105cc565b81146105ea575f80fd5b50565b5f813590506105fb816105d7565b92915050565b5f805f6060848603121561061857610617610455565b5b5f84013567ffffffffffffffff81111561063557610634610459565b5b6106418682870161056c565b9350506020610652868287016105b8565b9250506040610663868287016105ed565b9150509250925092565b61067681610599565b82525050565b5f60208201905061068f5f83018461066d565b92915050565b5f81519050919050565b5f82825260208201905092915050565b8281835e5f83830152505050565b5f6106c782610695565b6106d1818561069f565b93506106e18185602086016106af565b6106ea81610465565b840191505092915050565b6106fe816105cc565b82525050565b5f6060820190506107175f83018661066d565b818103602083015261072981856106bd565b905061073860408301846106f5565b949350505050565b5f6020828403121561075557610754610455565b5b5f610762848285016105b8565b91505092915050565b7f4e487b71000000000000000000000000000000000000000000000000000000005f52602260045260245ffd5b5f60028204905060018216806107af57607f821691505b6020821081036107c2576107c161076b565b5b50919050565b5f819050815f5260205f209050919050565b5f6020601f8301049050919050565b5f82821b905092915050565b5f600883026108247fffffffffffffffffffffffffffffffffffffffffffffffffffffffffffffffff826107e9565b61082e86836107e9565b95508019841693508086168417925050509392505050565b5f819050919050565b5f61086961086461085f84610599565b610846565b610599565b9050919050565b5f819050919050565b6108828361084f565b61089661088e82610870565b8484546107f5565b825550505050565b5f90565b6108aa61089e565b6108b5818484610879565b505050565b5b818110156108d8576108cd5f826108a2565b6001810190506108bb565b5050565b601f82111561091d576108ee816107c8565b6108f7846107da565b81016020851015610906578190505b61091a610912856107da565b8301826108ba565b50505b505050565b5f82821c905092915050565b5f61093d5f1984600802610922565b1980831691505092915050565b5f610955838361092e565b9150826002028217905092915050565b61096e82610695565b67ffffffffffffffff81111561098757610986610475565b5b6109918254610798565b61099c8282856108dc565b5f60209050601f8311600181146109cd575f84156109bb578287015190505b6109c5858261094a565b865550610a2c565b601f1984166109db866107c8565b5f5b82811015610a02578489015182556001820191506020850194506020810190506109dd565b86831015610a1f5784890151610a1b601f89168261092e565b8355505b6001600288020188555050505b505050505050565b7f4e487b71000000000000000000000000000000000000000000000000000000005f52601160045260245ffd5b5f610a6b82610599565b9150610a7683610599565b9250828201905080821115610a8e57610a8d610a34565b5b9291505056fea26469706673582212200d0374c41e0c3344cf4a16bc12943e854af845352775eee3e22e9e148509643564736f6c634300081a0033",
					"opcodes": "PUSH1 0x80 PUSH1 0x40 MSTORE PUSH1 0x1 PUSH0 DUP1 PUSH2 0x100 EXP DUP2 SLOAD DUP2 PUSH1 0xFF MUL NOT AND SWAP1 DUP4 ISZERO ISZERO MUL OR SWAP1 SSTORE POP PUSH1 0x7B PUSH1 0x1 SSTORE PUSH1 0x40 MLOAD DUP1 PUSH1 0x40 ADD PUSH1 0x40 MSTORE DUP1 PUSH1 0x5 DUP2 MSTORE PUSH1 0x20 ADD PUSH32 0x6861727279000000000000000000000000000000000000000000000000000000 DUP2 MSTORE POP PUSH1 0x2 SWAP1 DUP2 PUSH2 0x66 SWAP2 SWAP1 PUSH2 0x3E3 JUMP JUMPDEST POP PUSH32 0xFFFFFFFFFFFFFFFFFFFFFFFFFFFFFFFFFFFFFFFFFFFFFFFFFFFFFFFFFFFFFE0C PUSH1 0x3 SSTORE PUSH20 0xC60D2167B348708875A1F276484167EBC62E7B52 PUSH1 0x4 PUSH0 PUSH2 0x100 EXP DUP2 SLOAD DUP2 PUSH20 0xFFFFFFFFFFFFFFFFFFFFFFFFFFFFFFFFFFFFFFFF MUL NOT AND SWAP1 DUP4 PUSH20 0xFFFFFFFFFFFFFFFFFFFFFFFFFFFFFFFFFFFFFFFF AND MUL OR SWAP1 SSTORE POP PUSH32 0x6861727279000000000000000000000000000000000000000000000000000000 PUSH1 0x5 SSTORE PUSH1 0x40 MLOAD DUP1 PUSH1 0x60 ADD PUSH1 0x40 MSTORE DUP1 PUSH1 0x34 DUP2 MSTORE PUSH1 0x20 ADD PUSH1 0x40 MLOAD DUP1 PUSH1 0x40 ADD PUSH1 0x40 MSTORE DUP1 PUSH1 0x6 DUP2 MSTORE PUSH1 0x20 ADD PUSH32 0x4164617273680000000000000000000000000000000000000000000000000000 DUP2 MSTORE POP DUP2 MSTORE PUSH1 0x20 ADD PUSH1 0x1 ISZERO ISZERO DUP2 MSTORE POP PUSH1 0x7 PUSH0 DUP3 ADD MLOAD DUP2 PUSH0 ADD SSTORE PUSH1 0x20 DUP3 ADD MLOAD DUP2 PUSH1 0x1 ADD SWAP1 DUP2 PUSH2 0x176 SWAP2 SWAP1 PUSH2 0x3E3 JUMP JUMPDEST POP PUSH1 0x40 DUP3 ADD MLOAD DUP2 PUSH1 0x2 ADD PUSH0 PUSH2 0x100 EXP DUP2 SLOAD DUP2 PUSH1 0xFF MUL NOT AND SWAP1 DUP4 ISZERO ISZERO MUL OR SWAP1 SSTORE POP POP POP CALLVALUE DUP1 ISZERO PUSH2 0x1A3 JUMPI PUSH0 DUP1 REVERT JUMPDEST POP PUSH2 0x4B2 JUMP JUMPDEST PUSH0 DUP2 MLOAD SWAP1 POP SWAP2 SWAP1 POP JUMP JUMPDEST PUSH32 0x4E487B7100000000000000000000000000000000000000000000000000000000 PUSH0 MSTORE PUSH1 0x41 PUSH1 0x4 MSTORE PUSH1 0x24 PUSH0 REVERT JUMPDEST PUSH32 0x4E487B7100000000000000000000000000000000000000000000000000000000 PUSH0 MSTORE PUSH1 0x22 PUSH1 0x4 MSTORE PUSH1 0x24 PUSH0 REVERT JUMPDEST PUSH0 PUSH1 0x2 DUP3 DIV SWAP1 POP PUSH1 0x1 DUP3 AND DUP1 PUSH2 0x224 JUMPI PUSH1 0x7F DUP3 AND SWAP2 POP JUMPDEST PUSH1 0x20 DUP3 LT DUP2 SUB PUSH2 0x237 JUMPI PUSH2 0x236 PUSH2 0x1E0 JUMP JUMPDEST JUMPDEST POP SWAP2 SWAP1 POP JUMP JUMPDEST PUSH0 DUP2 SWAP1 POP DUP2 PUSH0 MSTORE PUSH1 0x20 PUSH0 KECCAK256 SWAP1 POP SWAP2 SWAP1 POP JUMP JUMPDEST PUSH0 PUSH1 0x20 PUSH1 0x1F DUP4 ADD DIV SWAP1 POP SWAP2 SWAP1 POP JUMP JUMPDEST PUSH0 DUP3 DUP3 SHL SWAP1 POP SWAP3 SWAP2 POP POP JUMP JUMPDEST PUSH0 PUSH1 0x8 DUP4 MUL PUSH2 0x299 PUSH32 0xFFFFFFFFFFFFFFFFFFFFFFFFFFFFFFFFFFFFFFFFFFFFFFFFFFFFFFFFFFFFFFFF DUP3 PUSH2 0x25E JUMP JUMPDEST PUSH2 0x2A3 DUP7 DUP4 PUSH2 0x25E JUMP JUMPDEST SWAP6 POP DUP1 NOT DUP5 AND SWAP4 POP DUP1 DUP7 AND DUP5 OR SWAP3 POP POP POP SWAP4 SWAP3 POP POP POP JUMP JUMPDEST PUSH0 DUP2 SWAP1 POP SWAP2 SWAP1 POP JUMP JUMPDEST PUSH0 DUP2 SWAP1 POP SWAP2 SWAP1 POP JUMP JUMPDEST PUSH0 PUSH2 0x2E7 PUSH2 0x2E2 PUSH2 0x2DD DUP5 PUSH2 0x2BB JUMP JUMPDEST PUSH2 0x2C4 JUMP JUMPDEST PUSH2 0x2BB JUMP JUMPDEST SWAP1 POP SWAP2 SWAP1 POP JUMP JUMPDEST PUSH0 DUP2 SWAP1 POP SWAP2 SWAP1 POP JUMP JUMPDEST PUSH2 0x300 DUP4 PUSH2 0x2CD JUMP JUMPDEST PUSH2 0x314 PUSH2 0x30C DUP3 PUSH2 0x2EE JUMP JUMPDEST DUP5 DUP5 SLOAD PUSH2 0x26A JUMP JUMPDEST DUP3 SSTORE POP POP POP POP JUMP JUMPDEST PUSH0 SWAP1 JUMP JUMPDEST PUSH2 0x328 PUSH2 0x31C JUMP JUMPDEST PUSH2 0x333 DUP2 DUP5 DUP5 PUSH2 0x2F7 JUMP JUMPDEST POP POP POP JUMP JUMPDEST JUMPDEST DUP2 DUP2 LT ISZERO PUSH2 0x356 JUMPI PUSH2 0x34B PUSH0 DUP3 PUSH2 0x320 JUMP JUMPDEST PUSH1 0x1 DUP2 ADD SWAP1 POP PUSH2 0x339 JUMP JUMPDEST POP POP JUMP JUMPDEST PUSH1 0x1F DUP3 GT ISZERO PUSH2 0x39B JUMPI PUSH2 0x36C DUP2 PUSH2 0x23D JUMP JUMPDEST PUSH2 0x375 DUP5 PUSH2 0x24F JUMP JUMPDEST DUP2 ADD PUSH1 0x20 DUP6 LT ISZERO PUSH2 0x384 JUMPI DUP2 SWAP1 POP JUMPDEST PUSH2 0x398 PUSH2 0x390 DUP6 PUSH2 0x24F JUMP JUMPDEST DUP4 ADD DUP3 PUSH2 0x338 JUMP JUMPDEST POP POP JUMPDEST POP POP POP JUMP JUMPDEST PUSH0 DUP3 DUP3 SHR SWAP1 POP SWAP3 SWAP2 POP POP JUMP JUMPDEST PUSH0 PUSH2 0x3BB PUSH0 NOT DUP5 PUSH1 0x8 MUL PUSH2 0x3A0 JUMP JUMPDEST NOT DUP1 DUP4 AND SWAP2 POP POP SWAP3 SWAP2 POP POP JUMP JUMPDEST PUSH0 PUSH2 0x3D3 DUP4 DUP4 PUSH2 0x3AC JUMP JUMPDEST SWAP2 POP DUP3 PUSH1 0x2 MUL DUP3 OR SWAP1 POP SWAP3 SWAP2 POP POP JUMP JUMPDEST PUSH2 0x3EC DUP3 PUSH2 0x1A9 JUMP JUMPDEST PUSH8 0xFFFFFFFFFFFFFFFF DUP2 GT ISZERO PUSH2 0x405 JUMPI PUSH2 0x404 PUSH2 0x1B3 JUMP JUMPDEST JUMPDEST PUSH2 0x40F DUP3 SLOAD PUSH2 0x20D JUMP JUMPDEST PUSH2 0x41A DUP3 DUP3 DUP6 PUSH2 0x35A JUMP JUMPDEST PUSH0 PUSH1 0x20 SWAP1 POP PUSH1 0x1F DUP4 GT PUSH1 0x1 DUP2 EQ PUSH2 0x44B JUMPI PUSH0 DUP5 ISZERO PUSH2 0x439 JUMPI DUP3 DUP8 ADD MLOAD SWAP1 POP JUMPDEST PUSH2 0x443 DUP6 DUP3 PUSH2 0x3C8 JUMP JUMPDEST DUP7 SSTORE POP PUSH2 0x4AA JUMP JUMPDEST PUSH1 0x1F NOT DUP5 AND PUSH2 0x459 DUP7 PUSH2 0x23D JUMP JUMPDEST PUSH0 JUMPDEST DUP3 DUP2 LT ISZERO PUSH2 0x480 JUMPI DUP5 DUP10 ADD MLOAD DUP3 SSTORE PUSH1 0x1 DUP3 ADD SWAP2 POP PUSH1 0x20 DUP6 ADD SWAP5 POP PUSH1 0x20 DUP2 ADD SWAP1 POP PUSH2 0x45B JUMP JUMPDEST DUP7 DUP4 LT ISZERO PUSH2 0x49D JUMPI DUP5 DUP10 ADD MLOAD PUSH2 0x499 PUSH1 0x1F DUP10 AND DUP3 PUSH2 0x3AC JUMP JUMPDEST DUP4 SSTORE POP JUMPDEST PUSH1 0x1 PUSH1 0x2 DUP9 MUL ADD DUP9 SSTORE POP POP POP JUMPDEST POP POP POP POP POP POP JUMP JUMPDEST PUSH2 0xACA DUP1 PUSH2 0x4BF PUSH0 CODECOPY PUSH0 RETURN INVALID PUSH1 0x80 PUSH1 0x40 MSTORE CALLVALUE DUP1 ISZERO PUSH2 0xF JUMPI PUSH0 DUP1 REVERT JUMPDEST POP PUSH1 0x4 CALLDATASIZE LT PUSH2 0x7B JUMPI PUSH0 CALLDATALOAD PUSH1 0xE0 SHR DUP1 PUSH4 0x4F2BE91F GT PUSH2 0x59 JUMPI DUP1 PUSH4 0x4F2BE91F EQ PUSH2 0xD9 JUMPI DUP1 PUSH4 0x4F685FC9 EQ PUSH2 0xF7 JUMPI DUP1 PUSH4 0xAB3EE911 EQ PUSH2 0x113 JUMPI DUP1 PUSH4 0xF304146E EQ PUSH2 0x143 JUMPI PUSH2 0x7B JUMP JUMPDEST DUP1 PUSH4 0x32CE9AA EQ PUSH2 0x7F JUMPI DUP1 PUSH4 0x2E64CEC1 EQ PUSH2 0x9B JUMPI DUP1 PUSH4 0x46CB59C2 EQ PUSH2 0xB9 JUMPI JUMPDEST PUSH0 DUP1 REVERT JUMPDEST PUSH2 0x99 PUSH1 0x4 DUP1 CALLDATASIZE SUB DUP2 ADD SWAP1 PUSH2 0x94 SWAP2 SWAP1 PUSH2 0x601 JUMP JUMPDEST PUSH2 0x175 JUMP JUMPDEST STOP JUMPDEST PUSH2 0xA3 PUSH2 0x287 JUMP JUMPDEST PUSH1 0x40 MLOAD PUSH2 0xB0 SWAP2 SWAP1 PUSH2 0x67C JUMP JUMPDEST PUSH1 0x40 MLOAD DUP1 SWAP2 SUB SWAP1 RETURN JUMPDEST PUSH2 0xC1 PUSH2 0x290 JUMP JUMPDEST PUSH1 0x40 MLOAD PUSH2 0xD0 SWAP4 SWAP3 SWAP2 SWAP1 PUSH2 0x704 JUMP JUMPDEST PUSH1 0x40 MLOAD DUP1 SWAP2 SUB SWAP1 RETURN JUMPDEST PUSH2 0xE1 PUSH2 0x339 JUMP JUMPDEST PUSH1 0x40 MLOAD PUSH2 0xEE SWAP2 SWAP1 PUSH2 0x67C JUMP JUMPDEST PUSH1 0x40 MLOAD DUP1 SWAP2 SUB SWAP1 RETURN JUMPDEST PUSH2 0x111 PUSH1 0x4 DUP1 CALLDATASIZE SUB DUP2 ADD SWAP1 PUSH2 0x10C SWAP2 SWAP1 PUSH2 0x740 JUMP JUMPDEST PUSH2 0x341 JUMP JUMPDEST STOP JUMPDEST PUSH2 0x12D PUSH1 0x4 DUP1 CALLDATASIZE SUB DUP2 ADD SWAP1 PUSH2 0x128 SWAP2 SWAP1 PUSH2 0x740 JUMP JUMPDEST PUSH2 0x36C JUMP JUMPDEST PUSH1 0x40 MLOAD PUSH2 0x13A SWAP2 SWAP1 PUSH2 0x67C JUMP JUMPDEST PUSH1 0x40 MLOAD DUP1 SWAP2 SUB SWAP1 RETURN JUMPDEST PUSH2 0x15D PUSH1 0x4 DUP1 CALLDATASIZE SUB DUP2 ADD SWAP1 PUSH2 0x158 SWAP2 SWAP1 PUSH2 0x740 JUMP JUMPDEST PUSH2 0x385 JUMP JUMPDEST PUSH1 0x40 MLOAD PUSH2 0x16C SWAP4 SWAP3 SWAP2 SWAP1 PUSH2 0x704 JUMP JUMPDEST PUSH1 0x40 MLOAD DUP1 SWAP2 SUB SWAP1 RETURN JUMPDEST PUSH1 0xA PUSH1 0x40 MLOAD DUP1 PUSH1 0x60 ADD PUSH1 0x40 MSTORE DUP1 DUP5 DUP2 MSTORE PUSH1 0x20 ADD DUP6 DUP2 MSTORE PUSH1 0x20 ADD DUP4 ISZERO ISZERO DUP2 MSTORE POP SWAP1 DUP1 PUSH1 0x1 DUP2 SLOAD ADD DUP1 DUP3 SSTORE DUP1 SWAP2 POP POP PUSH1 0x1 SWAP1 SUB SWAP1 PUSH0 MSTORE PUSH1 0x20 PUSH0 KECCAK256 SWAP1 PUSH1 0x3 MUL ADD PUSH0 SWAP1 SWAP2 SWAP1 SWAP2 SWAP1 SWAP2 POP PUSH0 DUP3 ADD MLOAD DUP2 PUSH0 ADD SSTORE PUSH1 0x20 DUP3 ADD MLOAD DUP2 PUSH1 0x1 ADD SWAP1 DUP2 PUSH2 0x1D7 SWAP2 SWAP1 PUSH2 0x965 JUMP JUMPDEST POP PUSH1 0x40 DUP3 ADD MLOAD DUP2 PUSH1 0x2 ADD PUSH0 PUSH2 0x100 EXP DUP2 SLOAD DUP2 PUSH1 0xFF MUL NOT AND SWAP1 DUP4 ISZERO ISZERO MUL OR SWAP1 SSTORE POP POP POP PUSH0 PUSH1 0x40 MLOAD DUP1 PUSH1 0x60 ADD PUSH1 0x40 MSTORE DUP1 DUP5 DUP2 MSTORE PUSH1 0x20 ADD DUP6 DUP2 MSTORE PUSH1 0x20 ADD DUP4 ISZERO ISZERO DUP2 MSTORE POP SWAP1 POP PUSH1 0xA DUP2 SWAP1 DUP1 PUSH1 0x1 DUP2 SLOAD ADD DUP1 DUP3 SSTORE DUP1 SWAP2 POP POP PUSH1 0x1 SWAP1 SUB SWAP1 PUSH0 MSTORE PUSH1 0x20 PUSH0 KECCAK256 SWAP1 PUSH1 0x3 MUL ADD PUSH0 SWAP1 SWAP2 SWAP1 SWAP2 SWAP1 SWAP2 POP PUSH0 DUP3 ADD MLOAD DUP2 PUSH0 ADD SSTORE PUSH1 0x20 DUP3 ADD MLOAD DUP2 PUSH1 0x1 ADD SWAP1 DUP2 PUSH2 0x25F SWAP2 SWAP1 PUSH2 0x965 JUMP JUMPDEST POP PUSH1 0x40 DUP3 ADD MLOAD DUP2 PUSH1 0x2 ADD PUSH0 PUSH2 0x100 EXP DUP2 SLOAD DUP2 PUSH1 0xFF MUL NOT AND SWAP1 DUP4 ISZERO ISZERO MUL OR SWAP1 SSTORE POP POP POP POP POP POP POP JUMP JUMPDEST PUSH0 PUSH1 0x1 SLOAD SWAP1 POP SWAP1 JUMP JUMPDEST PUSH1 0x7 DUP1 PUSH0 ADD SLOAD SWAP1 DUP1 PUSH1 0x1 ADD DUP1 SLOAD PUSH2 0x2A6 SWAP1 PUSH2 0x798 JUMP JUMPDEST DUP1 PUSH1 0x1F ADD PUSH1 0x20 DUP1 SWAP2 DIV MUL PUSH1 0x20 ADD PUSH1 0x40 MLOAD SWAP1 DUP2 ADD PUSH1 0x40 MSTORE DUP1 SWAP3 SWAP2 SWAP1 DUP2 DUP2 MSTORE PUSH1 0x20 ADD DUP3 DUP1 SLOAD PUSH2 0x2D2 SWAP1 PUSH2 0x798 JUMP JUMPDEST DUP1 ISZERO PUSH2 0x31D JUMPI DUP1 PUSH1 0x1F LT PUSH2 0x2F4 JUMPI PUSH2 0x100 DUP1 DUP4 SLOAD DIV MUL DUP4 MSTORE SWAP2 PUSH1 0x20 ADD SWAP2 PUSH2 0x31D JUMP JUMPDEST DUP3 ADD SWAP2 SWAP1 PUSH0 MSTORE PUSH1 0x20 PUSH0 KECCAK256 SWAP1 JUMPDEST DUP2 SLOAD DUP2 MSTORE SWAP1 PUSH1 0x1 ADD SWAP1 PUSH1 0x20 ADD DUP1 DUP4 GT PUSH2 0x300 JUMPI DUP3 SWAP1 SUB PUSH1 0x1F AND DUP3 ADD SWAP2 JUMPDEST POP POP POP POP POP SWAP1 DUP1 PUSH1 0x2 ADD PUSH0 SWAP1 SLOAD SWAP1 PUSH2 0x100 EXP SWAP1 DIV PUSH1 0xFF AND SWAP1 POP DUP4 JUMP JUMPDEST PUSH0 PUSH1 0x33 SWAP1 POP SWAP1 JUMP JUMPDEST DUP1 PUSH1 0x1 DUP2 SWAP1 SSTORE POP PUSH1 0x1 DUP1 PUSH0 DUP3 DUP3 SLOAD PUSH2 0x359 SWAP2 SWAP1 PUSH2 0xA61 JUMP JUMPDEST SWAP3 POP POP DUP2 SWAP1 SSTORE POP PUSH2 0x368 PUSH2 0x287 JUMP JUMPDEST POP POP JUMP JUMPDEST PUSH1 0xB DUP2 PUSH1 0x4 DUP2 LT PUSH2 0x37B JUMPI PUSH0 DUP1 REVERT JUMPDEST ADD PUSH0 SWAP2 POP SWAP1 POP SLOAD DUP2 JUMP JUMPDEST PUSH1 0xA DUP2 DUP2 SLOAD DUP2 LT PUSH2 0x394 JUMPI PUSH0 DUP1 REVERT JUMPDEST SWAP1 PUSH0 MSTORE PUSH1 0x20 PUSH0 KECCAK256 SWAP1 PUSH1 0x3 MUL ADD PUSH0 SWAP2 POP SWAP1 POP DUP1 PUSH0 ADD SLOAD SWAP1 DUP1 PUSH1 0x1 ADD DUP1 SLOAD PUSH2 0x3B9 SWAP1 PUSH2 0x798 JUMP JUMPDEST DUP1 PUSH1 0x1F ADD PUSH1 0x20 DUP1 SWAP2 DIV MUL PUSH1 0x20 ADD PUSH1 0x40 MLOAD SWAP1 DUP2 ADD PUSH1 0x40 MSTORE DUP1 SWAP3 SWAP2 SWAP1 DUP2 DUP2 MSTORE PUSH1 0x20 ADD DUP3 DUP1 SLOAD PUSH2 0x3E5 SWAP1 PUSH2 0x798 JUMP JUMPDEST DUP1 ISZERO PUSH2 0x430 JUMPI DUP1 PUSH1 0x1F LT PUSH2 0x407 JUMPI PUSH2 0x100 DUP1 DUP4 SLOAD DIV MUL DUP4 MSTORE SWAP2 PUSH1 0x20 ADD SWAP2 PUSH2 0x430 JUMP JUMPDEST DUP3 ADD SWAP2 SWAP1 PUSH0 MSTORE PUSH1 0x20 PUSH0 KECCAK256 SWAP1 JUMPDEST DUP2 SLOAD DUP2 MSTORE SWAP1 PUSH1 0x1 ADD SWAP1 PUSH1 0x20 ADD DUP1 DUP4 GT PUSH2 0x413 JUMPI DUP3 SWAP1 SUB PUSH1 0x1F AND DUP3 ADD SWAP2 JUMPDEST POP POP POP POP POP SWAP1 DUP1 PUSH1 0x2 ADD PUSH0 SWAP1 SLOAD SWAP1 PUSH2 0x100 EXP SWAP1 DIV PUSH1 0xFF AND SWAP1 POP DUP4 JUMP JUMPDEST PUSH0 PUSH1 0x40 MLOAD SWAP1 POP SWAP1 JUMP JUMPDEST PUSH0 DUP1 REVERT JUMPDEST PUSH0 DUP1 REVERT JUMPDEST PUSH0 DUP1 REVERT JUMPDEST PUSH0 DUP1 REVERT JUMPDEST PUSH0 PUSH1 0x1F NOT PUSH1 0x1F DUP4 ADD AND SWAP1 POP SWAP2 SWAP1 POP JUMP JUMPDEST PUSH32 0x4E487B7100000000000000000000000000000000000000000000000000000000 PUSH0 MSTORE PUSH1 0x41 PUSH1 0x4 MSTORE PUSH1 0x24 PUSH0 REVERT JUMPDEST PUSH2 0x4AB DUP3 PUSH2 0x465 JUMP JUMPDEST DUP2 ADD DUP2 DUP2 LT PUSH8 0xFFFFFFFFFFFFFFFF DUP3 GT OR ISZERO PUSH2 0x4CA JUMPI PUSH2 0x4C9 PUSH2 0x475 JUMP JUMPDEST JUMPDEST DUP1 PUSH1 0x40 MSTORE POP POP POP JUMP JUMPDEST PUSH0 PUSH2 0x4DC PUSH2 0x44C JUMP JUMPDEST SWAP1 POP PUSH2 0x4E8 DUP3 DUP3 PUSH2 0x4A2 JUMP JUMPDEST SWAP2 SWAP1 POP JUMP JUMPDEST PUSH0 PUSH8 0xFFFFFFFFFFFFFFFF DUP3 GT ISZERO PUSH2 0x507 JUMPI PUSH2 0x506 PUSH2 0x475 JUMP JUMPDEST JUMPDEST PUSH2 0x510 DUP3 PUSH2 0x465 JUMP JUMPDEST SWAP1 POP PUSH1 0x20 DUP2 ADD SWAP1 POP SWAP2 SWAP1 POP JUMP JUMPDEST DUP3 DUP2 DUP4 CALLDATACOPY PUSH0 DUP4 DUP4 ADD MSTORE POP POP POP JUMP JUMPDEST PUSH0 PUSH2 0x53D PUSH2 0x538 DUP5 PUSH2 0x4ED JUMP JUMPDEST PUSH2 0x4D3 JUMP JUMPDEST SWAP1 POP DUP3 DUP2 MSTORE PUSH1 0x20 DUP2 ADD DUP5 DUP5 DUP5 ADD GT ISZERO PUSH2 0x559 JUMPI PUSH2 0x558 PUSH2 0x461 JUMP JUMPDEST JUMPDEST PUSH2 0x564 DUP5 DUP3 DUP6 PUSH2 0x51D JUMP JUMPDEST POP SWAP4 SWAP3 POP POP POP JUMP JUMPDEST PUSH0 DUP3 PUSH1 0x1F DUP4 ADD SLT PUSH2 0x580 JUMPI PUSH2 0x57F PUSH2 0x45D JUMP JUMPDEST JUMPDEST DUP2 CALLDATALOAD PUSH2 0x590 DUP5 DUP3 PUSH1 0x20 DUP7 ADD PUSH2 0x52B JUMP JUMPDEST SWAP2 POP POP SWAP3 SWAP2 POP POP JUMP JUMPDEST PUSH0 DUP2 SWAP1 POP SWAP2 SWAP1 POP JUMP JUMPDEST PUSH2 0x5AB DUP2 PUSH2 0x599 JUMP JUMPDEST DUP2 EQ PUSH2 0x5B5 JUMPI PUSH0 DUP1 REVERT JUMPDEST POP JUMP JUMPDEST PUSH0 DUP2 CALLDATALOAD SWAP1 POP PUSH2 0x5C6 DUP2 PUSH2 0x5A2 JUMP JUMPDEST SWAP3 SWAP2 POP POP JUMP JUMPDEST PUSH0 DUP2 ISZERO ISZERO SWAP1 POP SWAP2 SWAP1 POP JUMP JUMPDEST PUSH2 0x5E0 DUP2 PUSH2 0x5CC JUMP JUMPDEST DUP2 EQ PUSH2 0x5EA JUMPI PUSH0 DUP1 REVERT JUMPDEST POP JUMP JUMPDEST PUSH0 DUP2 CALLDATALOAD SWAP1 POP PUSH2 0x5FB DUP2 PUSH2 0x5D7 JUMP JUMPDEST SWAP3 SWAP2 POP POP JUMP JUMPDEST PUSH0 DUP1 PUSH0 PUSH1 0x60 DUP5 DUP7 SUB SLT ISZERO PUSH2 0x618 JUMPI PUSH2 0x617 PUSH2 0x455 JUMP JUMPDEST JUMPDEST PUSH0 DUP5 ADD CALLDATALOAD PUSH8 0xFFFFFFFFFFFFFFFF DUP2 GT ISZERO PUSH2 0x635 JUMPI PUSH2 0x634 PUSH2 0x459 JUMP JUMPDEST JUMPDEST PUSH2 0x641 DUP7 DUP3 DUP8 ADD PUSH2 0x56C JUMP JUMPDEST SWAP4 POP POP PUSH1 0x20 PUSH2 0x652 DUP7 DUP3 DUP8 ADD PUSH2 0x5B8 JUMP JUMPDEST SWAP3 POP POP PUSH1 0x40 PUSH2 0x663 DUP7 DUP3 DUP8 ADD PUSH2 0x5ED JUMP JUMPDEST SWAP2 POP POP SWAP3 POP SWAP3 POP SWAP3 JUMP JUMPDEST PUSH2 0x676 DUP2 PUSH2 0x599 JUMP JUMPDEST DUP3 MSTORE POP POP JUMP JUMPDEST PUSH0 PUSH1 0x20 DUP3 ADD SWAP1 POP PUSH2 0x68F PUSH0 DUP4 ADD DUP5 PUSH2 0x66D JUMP JUMPDEST SWAP3 SWAP2 POP POP JUMP JUMPDEST PUSH0 DUP2 MLOAD SWAP1 POP SWAP2 SWAP1 POP JUMP JUMPDEST PUSH0 DUP3 DUP3 MSTORE PUSH1 0x20 DUP3 ADD SWAP1 POP SWAP3 SWAP2 POP POP JUMP JUMPDEST DUP3 DUP2 DUP4 MCOPY PUSH0 DUP4 DUP4 ADD MSTORE POP POP POP JUMP JUMPDEST PUSH0 PUSH2 0x6C7 DUP3 PUSH2 0x695 JUMP JUMPDEST PUSH2 0x6D1 DUP2 DUP6 PUSH2 0x69F JUMP JUMPDEST SWAP4 POP PUSH2 0x6E1 DUP2 DUP6 PUSH1 0x20 DUP7 ADD PUSH2 0x6AF JUMP JUMPDEST PUSH2 0x6EA DUP2 PUSH2 0x465 JUMP JUMPDEST DUP5 ADD SWAP2 POP POP SWAP3 SWAP2 POP POP JUMP JUMPDEST PUSH2 0x6FE DUP2 PUSH2 0x5CC JUMP JUMPDEST DUP3 MSTORE POP POP JUMP JUMPDEST PUSH0 PUSH1 0x60 DUP3 ADD SWAP1 POP PUSH2 0x717 PUSH0 DUP4 ADD DUP7 PUSH2 0x66D JUMP JUMPDEST DUP2 DUP2 SUB PUSH1 0x20 DUP4 ADD MSTORE PUSH2 0x729 DUP2 DUP6 PUSH2 0x6BD JUMP JUMPDEST SWAP1 POP PUSH2 0x738 PUSH1 0x40 DUP4 ADD DUP5 PUSH2 0x6F5 JUMP JUMPDEST SWAP5 SWAP4 POP POP POP POP JUMP JUMPDEST PUSH0 PUSH1 0x20 DUP3 DUP5 SUB SLT ISZERO PUSH2 0x755 JUMPI PUSH2 0x754 PUSH2 0x455 JUMP JUMPDEST JUMPDEST PUSH0 PUSH2 0x762 DUP5 DUP3 DUP6 ADD PUSH2 0x5B8 JUMP JUMPDEST SWAP2 POP POP SWAP3 SWAP2 POP POP JUMP JUMPDEST PUSH32 0x4E487B7100000000000000000000000000000000000000000000000000000000 PUSH0 MSTORE PUSH1 0x22 PUSH1 0x4 MSTORE PUSH1 0x24 PUSH0 REVERT JUMPDEST PUSH0 PUSH1 0x2 DUP3 DIV SWAP1 POP PUSH1 0x1 DUP3 AND DUP1 PUSH2 0x7AF JUMPI PUSH1 0x7F DUP3 AND SWAP2 POP JUMPDEST PUSH1 0x20 DUP3 LT DUP2 SUB PUSH2 0x7C2 JUMPI PUSH2 0x7C1 PUSH2 0x76B JUMP JUMPDEST JUMPDEST POP SWAP2 SWAP1 POP JUMP JUMPDEST PUSH0 DUP2 SWAP1 POP DUP2 PUSH0 MSTORE PUSH1 0x20 PUSH0 KECCAK256 SWAP1 POP SWAP2 SWAP1 POP JUMP JUMPDEST PUSH0 PUSH1 0x20 PUSH1 0x1F DUP4 ADD DIV SWAP1 POP SWAP2 SWAP1 POP JUMP JUMPDEST PUSH0 DUP3 DUP3 SHL SWAP1 POP SWAP3 SWAP2 POP POP JUMP JUMPDEST PUSH0 PUSH1 0x8 DUP4 MUL PUSH2 0x824 PUSH32 0xFFFFFFFFFFFFFFFFFFFFFFFFFFFFFFFFFFFFFFFFFFFFFFFFFFFFFFFFFFFFFFFF DUP3 PUSH2 0x7E9 JUMP JUMPDEST PUSH2 0x82E DUP7 DUP4 PUSH2 0x7E9 JUMP JUMPDEST SWAP6 POP DUP1 NOT DUP5 AND SWAP4 POP DUP1 DUP7 AND DUP5 OR SWAP3 POP POP POP SWAP4 SWAP3 POP POP POP JUMP JUMPDEST PUSH0 DUP2 SWAP1 POP SWAP2 SWAP1 POP JUMP JUMPDEST PUSH0 PUSH2 0x869 PUSH2 0x864 PUSH2 0x85F DUP5 PUSH2 0x599 JUMP JUMPDEST PUSH2 0x846 JUMP JUMPDEST PUSH2 0x599 JUMP JUMPDEST SWAP1 POP SWAP2 SWAP1 POP JUMP JUMPDEST PUSH0 DUP2 SWAP1 POP SWAP2 SWAP1 POP JUMP JUMPDEST PUSH2 0x882 DUP4 PUSH2 0x84F JUMP JUMPDEST PUSH2 0x896 PUSH2 0x88E DUP3 PUSH2 0x870 JUMP JUMPDEST DUP5 DUP5 SLOAD PUSH2 0x7F5 JUMP JUMPDEST DUP3 SSTORE POP POP POP POP JUMP JUMPDEST PUSH0 SWAP1 JUMP JUMPDEST PUSH2 0x8AA PUSH2 0x89E JUMP JUMPDEST PUSH2 0x8B5 DUP2 DUP5 DUP5 PUSH2 0x879 JUMP JUMPDEST POP POP POP JUMP JUMPDEST JUMPDEST DUP2 DUP2 LT ISZERO PUSH2 0x8D8 JUMPI PUSH2 0x8CD PUSH0 DUP3 PUSH2 0x8A2 JUMP JUMPDEST PUSH1 0x1 DUP2 ADD SWAP1 POP PUSH2 0x8BB JUMP JUMPDEST POP POP JUMP JUMPDEST PUSH1 0x1F DUP3 GT ISZERO PUSH2 0x91D JUMPI PUSH2 0x8EE DUP2 PUSH2 0x7C8 JUMP JUMPDEST PUSH2 0x8F7 DUP5 PUSH2 0x7DA JUMP JUMPDEST DUP2 ADD PUSH1 0x20 DUP6 LT ISZERO PUSH2 0x906 JUMPI DUP2 SWAP1 POP JUMPDEST PUSH2 0x91A PUSH2 0x912 DUP6 PUSH2 0x7DA JUMP JUMPDEST DUP4 ADD DUP3 PUSH2 0x8BA JUMP JUMPDEST POP POP JUMPDEST POP POP POP JUMP JUMPDEST PUSH0 DUP3 DUP3 SHR SWAP1 POP SWAP3 SWAP2 POP POP JUMP JUMPDEST PUSH0 PUSH2 0x93D PUSH0 NOT DUP5 PUSH1 0x8 MUL PUSH2 0x922 JUMP JUMPDEST NOT DUP1 DUP4 AND SWAP2 POP POP SWAP3 SWAP2 POP POP JUMP JUMPDEST PUSH0 PUSH2 0x955 DUP4 DUP4 PUSH2 0x92E JUMP JUMPDEST SWAP2 POP DUP3 PUSH1 0x2 MUL DUP3 OR SWAP1 POP SWAP3 SWAP2 POP POP JUMP JUMPDEST PUSH2 0x96E DUP3 PUSH2 0x695 JUMP JUMPDEST PUSH8 0xFFFFFFFFFFFFFFFF DUP2 GT ISZERO PUSH2 0x987 JUMPI PUSH2 0x986 PUSH2 0x475 JUMP JUMPDEST JUMPDEST PUSH2 0x991 DUP3 SLOAD PUSH2 0x798 JUMP JUMPDEST PUSH2 0x99C DUP3 DUP3 DUP6 PUSH2 0x8DC JUMP JUMPDEST PUSH0 PUSH1 0x20 SWAP1 POP PUSH1 0x1F DUP4 GT PUSH1 0x1 DUP2 EQ PUSH2 0x9CD JUMPI PUSH0 DUP5 ISZERO PUSH2 0x9BB JUMPI DUP3 DUP8 ADD MLOAD SWAP1 POP JUMPDEST PUSH2 0x9C5 DUP6 DUP3 PUSH2 0x94A JUMP JUMPDEST DUP7 SSTORE POP PUSH2 0xA2C JUMP JUMPDEST PUSH1 0x1F NOT DUP5 AND PUSH2 0x9DB DUP7 PUSH2 0x7C8 JUMP JUMPDEST PUSH0 JUMPDEST DUP3 DUP2 LT ISZERO PUSH2 0xA02 JUMPI DUP5 DUP10 ADD MLOAD DUP3 SSTORE PUSH1 0x1 DUP3 ADD SWAP2 POP PUSH1 0x20 DUP6 ADD SWAP5 POP PUSH1 0x20 DUP2 ADD SWAP1 POP PUSH2 0x9DD JUMP JUMPDEST DUP7 DUP4 LT ISZERO PUSH2 0xA1F JUMPI DUP5 DUP10 ADD MLOAD PUSH2 0xA1B PUSH1 0x1F DUP10 AND DUP3 PUSH2 0x92E JUMP JUMPDEST DUP4 SSTORE POP JUMPDEST PUSH1 0x1 PUSH1 0x2 DUP9 MUL ADD DUP9 SSTORE POP POP POP JUMPDEST POP POP POP POP POP POP JUMP JUMPDEST PUSH32 0x4E487B7100000000000000000000000000000000000000000000000000000000 PUSH0 MSTORE PUSH1 0x11 PUSH1 0x4 MSTORE PUSH1 0x24 PUSH0 REVERT JUMPDEST PUSH0 PUSH2 0xA6B DUP3 PUSH2 0x599 JUMP JUMPDEST SWAP2 POP PUSH2 0xA76 DUP4 PUSH2 0x599 JUMP JUMPDEST SWAP3 POP DUP3 DUP3 ADD SWAP1 POP DUP1 DUP3 GT ISZERO PUSH2 0xA8E JUMPI PUSH2 0xA8D PUSH2 0xA34 JUMP JUMPDEST JUMPDEST SWAP3 SWAP2 POP POP JUMP INVALID LOG2 PUSH5 0x6970667358 0x22 SLT KECCAK256 0xD SUB PUSH21 0xC41E0C3344CF4A16BC12943E854AF845352775EEE3 0xE2 0x2E SWAP15 EQ DUP6 MULMOD PUSH5 0x3564736F6C PUSH4 0x4300081A STOP CALLER "
				},
				"gasEstimates": {
					"creation": {
						"codeDepositCost": "552400",
						"executionCost": "infinite",
						"totalCost": "infinite"
					},
					"external": {
						"add()": "332",
						"addPerson(string,uint256,bool)": "infinite",
						"myStore(uint256)": "infinite",
						"numArr(uint256)": "infinite",
						"peopleArr(uint256)": "infinite",
						"person1()": "infinite",
						"retrieve()": "2455"
					}
				},
				"methodIdentifiers": {
					"add()": "4f2be91f",
					"addPerson(string,uint256,bool)": "032ce9aa",
					"myStore(uint256)": "4f685fc9",
					"numArr(uint256)": "ab3ee911",
					"peopleArr(uint256)": "f304146e",
					"person1()": "46cb59c2",
					"retrieve()": "2e64cec1"
				}
			},
			"storageLayout": {
				"storage": [
					{
						"astId": 4,
						"contract": "contracts/SimpleStorage.sol:SimpleStorage",
						"label": "hasfavorite",
						"offset": 0,
						"slot": "0",
						"type": "t_bool"
					},
					{
						"astId": 7,
						"contract": "contracts/SimpleStorage.sol:SimpleStorage",
						"label": "favorteNum",
						"offset": 0,
						"slot": "1",
						"type": "t_uint256"
					},
					{
						"astId": 10,
						"contract": "contracts/SimpleStorage.sol:SimpleStorage",
						"label": "name",
						"offset": 0,
						"slot": "2",
						"type": "t_string_storage"
					},
					{
						"astId": 14,
						"contract": "contracts/SimpleStorage.sol:SimpleStorage",
						"label": "favoriteInt",
						"offset": 0,
						"slot": "3",
						"type": "t_int256"
					},
					{
						"astId": 17,
						"contract": "contracts/SimpleStorage.sol:SimpleStorage",
						"label": "myAddress",
						"offset": 0,
						"slot": "4",
						"type": "t_address"
					},
					{
						"astId": 20,
						"contract": "contracts/SimpleStorage.sol:SimpleStorage",
						"label": "favoriteBytes",
						"offset": 0,
						"slot": "5",
						"type": "t_bytes32"
					},
					{
						"astId": 22,
						"contract": "contracts/SimpleStorage.sol:SimpleStorage",
						"label": "favNum",
						"offset": 0,
						"slot": "6",
						"type": "t_uint256"
					},
					{
						"astId": 73,
						"contract": "contracts/SimpleStorage.sol:SimpleStorage",
						"label": "person1",
						"offset": 0,
						"slot": "7",
						"type": "t_struct(People)65_storage"
					},
					{
						"astId": 77,
						"contract": "contracts/SimpleStorage.sol:SimpleStorage",
						"label": "peopleArr",
						"offset": 0,
						"slot": "10",
						"type": "t_array(t_struct(People)65_storage)dyn_storage"
					},
					{
						"astId": 81,
						"contract": "contracts/SimpleStorage.sol:SimpleStorage",
						"label": "numArr",
						"offset": 0,
						"slot": "11",
						"type": "t_array(t_uint256)4_storage"
					}
				],
				"types": {
					"t_address": {
						"encoding": "inplace",
						"label": "address",
						"numberOfBytes": "20"
					},
					"t_array(t_struct(People)65_storage)dyn_storage": {
						"base": "t_struct(People)65_storage",
						"encoding": "dynamic_array",
						"label": "struct SimpleStorage.People[]",
						"numberOfBytes": "32"
					},
					"t_array(t_uint256)4_storage": {
						"base": "t_uint256",
						"encoding": "inplace",
						"label": "uint256[4]",
						"numberOfBytes": "128"
					},
					"t_bool": {
						"encoding": "inplace",
						"label": "bool",
						"numberOfBytes": "1"
					},
					"t_bytes32": {
						"encoding": "inplace",
						"label": "bytes32",
						"numberOfBytes": "32"
					},
					"t_int256": {
						"encoding": "inplace",
						"label": "int256",
						"numberOfBytes": "32"
					},
					"t_string_storage": {
						"encoding": "bytes",
						"label": "string",
						"numberOfBytes": "32"
					},
					"t_struct(People)65_storage": {
						"encoding": "inplace",
						"label": "struct SimpleStorage.People",
						"members": [
							{
								"astId": 60,
								"contract": "contracts/SimpleStorage.sol:SimpleStorage",
								"label": "favorteNum",
								"offset": 0,
								"slot": "0",
								"type": "t_uint256"
							},
							{
								"astId": 62,
								"contract": "contracts/SimpleStorage.sol:SimpleStorage",
								"label": "name",
								"offset": 0,
								"slot": "1",
								"type": "t_string_storage"
							},
							{
								"astId": 64,
								"contract": "contracts/SimpleStorage.sol:SimpleStorage",
								"label": "smart",
								"offset": 0,
								"slot": "2",
								"type": "t_bool"
							}
						],
						"numberOfBytes": "96"
					},
					"t_uint256": {
						"encoding": "inplace",
						"label": "uint256",
						"numberOfBytes": "32"
					}
				}
			},
			"userdoc": {
				"kind": "user",
				"methods": {},
				"version": 1
			}
		}
	}
}